{
  "contractName": "Company",
  "abi": [
    {
      "constant": true,
      "inputs": [],
      "name": "sayCompanyHello",
      "outputs": [
        {
          "internalType": "string",
          "name": "",
          "type": "string"
        }
      ],
      "payable": false,
      "stateMutability": "pure",
      "type": "function"
    }
  ],
  "bytecode": "0x608060405234801561001057600080fd5b5061011d806100206000396000f3fe6080604052348015600f57600080fd5b506004361060285760003560e01c806305c74dc114602d575b600080fd5b603360ab565b6040518080602001828103825283818151815260200191508051906020019080838360005b8381101560715780820151818401526020810190506058565b50505050905090810190601f168015609d5780820380516001836020036101000a031916815260200191505b509250505060405180910390f35b60606040518060400160405280601881526020017f7361792048656c6c6f20746f2074686520436f6d70616e79000000000000000081525090509056fea265627a7a72315820980f8a2a1720de697397d55cd41ff0a710f9b8a6f25e0561d3eb1f108190336164736f6c63430005100032",
  "source": "pragma solidity >=0.4.21 <0.7.0;\n\n// how do we define roles between Company and Person\ncontract Company {\n    string name;\n    string legalFrom;\n    string POBox;\n    string addressCompany;\n\n    function sayCompanyHello() public pure returns (string memory) {\n        return \"say Hello to the Company\";\n    }\n}",
  "sourcePath": "/Users/orcunoruc/Desktop/Projects/Smart_Contract_Development/Role_Based_Contracts/contracts/Company.sol",
  "compiler": {
    "name": "solc",
    "version": "0.5.16+commit.9c3226ce.Emscripten.clang"
  },
  "schemaVersion": "3.0.22",
  "updatedAt": "2020-01-31T14:17:44.539Z",
  "networkType": "ethereum",
  "devdoc": {
    "methods": {}
  },
  "userdoc": {
    "methods": {}
  }
}