{
  "contractName": "Person",
  "abi": [
    {
      "constant": false,
      "inputs": [],
      "name": "getTitle",
      "outputs": [
        {
          "internalType": "string",
          "name": "",
          "type": "string"
        }
      ],
      "payable": false,
      "stateMutability": "nonpayable",
      "type": "function"
    },
    {
      "constant": false,
      "inputs": [],
      "name": "setTitle",
      "outputs": [
        {
          "internalType": "string",
          "name": "title",
          "type": "string"
        }
      ],
      "payable": false,
      "stateMutability": "nonpayable",
      "type": "function"
    },
    {
      "constant": false,
      "inputs": [],
      "name": "getFirstName",
      "outputs": [
        {
          "internalType": "string",
          "name": "",
          "type": "string"
        }
      ],
      "payable": false,
      "stateMutability": "nonpayable",
      "type": "function"
    },
    {
      "constant": false,
      "inputs": [],
      "name": "setFirstName",
      "outputs": [
        {
          "internalType": "string",
          "name": "firstName",
          "type": "string"
        }
      ],
      "payable": false,
      "stateMutability": "nonpayable",
      "type": "function"
    },
    {
      "constant": false,
      "inputs": [],
      "name": "getLastName",
      "outputs": [
        {
          "internalType": "string",
          "name": "",
          "type": "string"
        }
      ],
      "payable": false,
      "stateMutability": "nonpayable",
      "type": "function"
    },
    {
      "constant": false,
      "inputs": [],
      "name": "setLastName",
      "outputs": [
        {
          "internalType": "string",
          "name": "lastName",
          "type": "string"
        }
      ],
      "payable": false,
      "stateMutability": "nonpayable",
      "type": "function"
    },
    {
      "constant": false,
      "inputs": [],
      "name": "setPersonAddress",
      "outputs": [
        {
          "internalType": "string",
          "name": "personAddress",
          "type": "string"
        }
      ],
      "payable": false,
      "stateMutability": "nonpayable",
      "type": "function"
    },
    {
      "constant": false,
      "inputs": [],
      "name": "getPersonAddress",
      "outputs": [
        {
          "internalType": "string",
          "name": "",
          "type": "string"
        }
      ],
      "payable": false,
      "stateMutability": "nonpayable",
      "type": "function"
    },
    {
      "constant": false,
      "inputs": [],
      "name": "toString",
      "outputs": [
        {
          "internalType": "string",
          "name": "",
          "type": "string"
        }
      ],
      "payable": false,
      "stateMutability": "nonpayable",
      "type": "function"
    }
  ],
  "bytecode": "0x608060405234801561001057600080fd5b50610db1806100206000396000f3fe608060405234801561001057600080fd5b50600436106100935760003560e01c8063932997f111610066578063932997f1146102a4578063a63c424314610327578063b15195ed146103aa578063bfe8aee11461042d578063ff3c1a8f146104b057610093565b80633bfbfeae1461009857806347e468061461011b5780635d65875f1461019e5780636b10928214610221575b600080fd5b6100a0610533565b6040518080602001828103825283818151815260200191508051906020019080838360005b838110156100e05780820151818401526020810190506100c5565b50505050905090810190601f16801561010d5780820380516001836020036101000a031916815260200191505b509250505060405180910390f35b61012361053b565b6040518080602001828103825283818151815260200191508051906020019080838360005b83811015610163578082015181840152602081019050610148565b50505050905090810190601f1680156101905780820380516001836020036101000a031916815260200191505b509250505060405180910390f35b6101a66107b6565b6040518080602001828103825283818151815260200191508051906020019080838360005b838110156101e65780820151818401526020810190506101cb565b50505050905090810190601f1680156102135780820380516001836020036101000a031916815260200191505b509250505060405180910390f35b610229610858565b6040518080602001828103825283818151815260200191508051906020019080838360005b8381101561026957808201518184015260208101905061024e565b50505050905090810190601f1680156102965780820380516001836020036101000a031916815260200191505b509250505060405180910390f35b6102ac6108fa565b6040518080602001828103825283818151815260200191508051906020019080838360005b838110156102ec5780820151818401526020810190506102d1565b50505050905090810190601f1680156103195780820380516001836020036101000a031916815260200191505b509250505060405180910390f35b61032f61099c565b6040518080602001828103825283818151815260200191508051906020019080838360005b8381101561036f578082015181840152602081019050610354565b50505050905090810190601f16801561039c5780820380516001836020036101000a031916815260200191505b509250505060405180910390f35b6103b26109b8565b6040518080602001828103825283818151815260200191508051906020019080838360005b838110156103f25780820151818401526020810190506103d7565b50505050905090810190601f16801561041f5780820380516001836020036101000a031916815260200191505b509250505060405180910390f35b6104356109d4565b6040518080602001828103825283818151815260200191508051906020019080838360005b8381101561047557808201518184015260208101905061045a565b50505050905090810190601f1680156104a25780820380516001836020036101000a031916815260200191505b509250505060405180910390f35b6104b86109f0565b6040518080602001828103825283818151815260200191508051906020019080838360005b838110156104f85780820151818401526020810190506104dd565b50505050905090810190601f1680156105255780820380516001836020036101000a031916815260200191505b509250505060405180910390f35b606080905090565b60606107b160008054600181600116156101000203166002900480601f0160208091040260200160405190810160405280929190818152602001828054600181600116156101000203166002900480156105d65780601f106105ab576101008083540402835291602001916105d6565b820191906000526020600020905b8154815290600101906020018083116105b957829003601f168201915b505050505060018054600181600116156101000203166002900480601f0160208091040260200160405190810160405280929190818152602001828054600181600116156101000203166002900480156106715780601f1061064657610100808354040283529160200191610671565b820191906000526020600020905b81548152906001019060200180831161065457829003601f168201915b505050505060028054600181600116156101000203166002900480601f01602080910402602001604051908101604052809291908181526020018280546001816001161561010002031660029004801561070c5780601f106106e15761010080835404028352916020019161070c565b820191906000526020600020905b8154815290600101906020018083116106ef57829003601f168201915b505050505060038054600181600116156101000203166002900480601f0160208091040260200160405190810160405280929190818152602001828054600181600116156101000203166002900480156107a75780601f1061077c576101008083540402835291602001916107a7565b820191906000526020600020905b81548152906001019060200180831161078a57829003601f168201915b5050505050610a92565b905090565b606060038054600181600116156101000203166002900480601f01602080910402602001604051908101604052809291908181526020018280546001816001161561010002031660029004801561084e5780601f106108235761010080835404028352916020019161084e565b820191906000526020600020905b81548152906001019060200180831161083157829003601f168201915b5050505050905090565b606060028054600181600116156101000203166002900480601f0160208091040260200160405190810160405280929190818152602001828054600181600116156101000203166002900480156108f05780601f106108c5576101008083540402835291602001916108f0565b820191906000526020600020905b8154815290600101906020018083116108d357829003601f168201915b5050505050905090565b606060018054600181600116156101000203166002900480601f0160208091040260200160405190810160405280929190818152602001828054600181600116156101000203166002900480156109925780601f1061096757610100808354040283529160200191610992565b820191906000526020600020905b81548152906001019060200180831161097557829003601f168201915b5050505050905090565b606080600190805190602001906109b4929190610cd7565b5090565b606080600090805190602001906109d0929190610cd7565b5090565b606080600290805190602001906109ec929190610cd7565b5090565b606060008054600181600116156101000203166002900480601f016020809104026020016040519081016040528092919081815260200182805460018160011615610100020316600290048015610a885780601f10610a5d57610100808354040283529160200191610a88565b820191906000526020600020905b815481529060010190602001808311610a6b57829003601f168201915b5050505050905090565b606080859050606085905060608590506060859050606081518351855187510101016040519080825280601f01601f191660200182016040528015610ae65781602001600182028038833980820191505090505b509050606081905060008090506000809050600090505b8751811015610b6b57878181518110610b1257fe5b602001015160f81c60f81b838380600101945081518110610b2f57fe5b60200101907effffffffffffffffffffffffffffffffffffffffffffffffffffffffffffff1916908160001a9053508080600101915050610afd565b600090505b8651811015610bde57868181518110610b8557fe5b602001015160f81c60f81b838380600101945081518110610ba257fe5b60200101907effffffffffffffffffffffffffffffffffffffffffffffffffffffffffffff1916908160001a9053508080600101915050610b70565b600090505b8551811015610c5157858181518110610bf857fe5b602001015160f81c60f81b838380600101945081518110610c1557fe5b60200101907effffffffffffffffffffffffffffffffffffffffffffffffffffffffffffff1916908160001a9053508080600101915050610be3565b600090505b8451811015610cc457848181518110610c6b57fe5b602001015160f81c60f81b838380600101945081518110610c8857fe5b60200101907effffffffffffffffffffffffffffffffffffffffffffffffffffffffffffff1916908160001a9053508080600101915050610c56565b8298505050505050505050949350505050565b828054600181600116156101000203166002900490600052602060002090601f016020900481019282601f10610d1857805160ff1916838001178555610d46565b82800160010185558215610d46579182015b82811115610d45578251825591602001919060010190610d2a565b5b509050610d539190610d57565b5090565b610d7991905b80821115610d75576000816000905550600101610d5d565b5090565b9056fea265627a7a723158205cb0d01d1b46c941fac5826462a8aa139e2f330a53122daa7e661aae0eaf264464736f6c63430005100032",
  "source": "pragma solidity >=0.4.21 <0.7.0;\n\ncontract Person {\n    string _title;\n    string _firstName;\n    string _lastName;\n    string _personAddress;\n\n    mapping(string => Person) persons; // for one-to-many relationship\n\n    function getTitle() public returns(string memory) {\n        return _title;\n    }\n\n    function setTitle() public returns(string memory title) {\n        _title = title;\n    }\n\n    function getFirstName() public returns(string memory) {\n        return _firstName;\n    }\n\n    function setFirstName() public returns(string memory firstName) {\n        _firstName = firstName;\n    }\n    \n    function getLastName() public returns(string memory) {\n        return _lastName;\n    }\n\n    function setLastName() public returns(string memory lastName) {\n        _lastName = lastName;\n    }\n\n    function setPersonAddress() public returns(string memory personAddress){\n        personAddress = personAddress;\n    }\n\n    function getPersonAddress() public returns(string memory) {\n        return _personAddress;\n    }\n\n    //string concatenation\n    function strConcat(string memory _a, string memory _b, string memory _c, string memory _d) internal returns (string memory) {\n        bytes memory _ba = bytes(_a);\n        bytes memory _bb = bytes(_b);\n        bytes memory _bc = bytes(_c);\n        bytes memory _bd = bytes(_d);\n        string memory abcde = new string(_ba.length + _bb.length + _bc.length + _bd.length);\n        bytes memory babcde = bytes(abcde);\n        uint k = 0;\n        uint i = 0;\n        for (i = 0; i < _ba.length; i++) babcde[k++] = _ba[i];\n        for (i = 0; i < _bb.length; i++) babcde[k++] = _bb[i];\n        for (i = 0; i < _bc.length; i++) babcde[k++] = _bc[i];\n        for (i = 0; i < _bd.length; i++) babcde[k++] = _bd[i];\n        return string(babcde);\n    }\n\n        function toString() public returns (string memory) {\n        return strConcat(_title, _firstName, _lastName, _personAddress);\n    }\n}\n \n// Storage: The persistent memory that every account has is called storage. Storage is a key-value store where keys and values are both 32 bytes.\n// Memory: Memory is a byte-array, which hold the data in it until the execution of the function. Memory starts with zero-size and can be expanded in 32-byte chunks\n// by simply accessing or storing memory at indices greater than its current size.",
  "sourcePath": "/Users/orcunoruc/Desktop/Projects/Smart_Contract_Development/Role_Based_Contracts/contracts/Person.sol",
  "compiler": {
    "name": "solc",
    "version": "0.5.16+commit.9c3226ce.Emscripten.clang"
  },
  "schemaVersion": "3.0.22",
  "updatedAt": "2020-05-07T09:32:50.374Z",
  "devdoc": {
    "methods": {}
  },
  "userdoc": {
    "methods": {}
  }
}