{
  "contracts/component-CROP/ComponentCore.sol": {
    "ComponentCore": {
      "abi": [
        {
          "anonymous": false,
          "inputs": [
            {
              "indexed": false,
              "internalType": "string",
              "name": "sampleResult",
              "type": "string"
            },
            {
              "indexed": false,
              "internalType": "bool",
              "name": "param",
              "type": "bool"
            }
          ],
          "name": "Logging",
          "type": "event"
        },
        {
          "inputs": [
            {
              "internalType": "address",
              "name": "team",
              "type": "address"
            }
          ],
          "name": "activateTeam",
          "outputs": [],
          "stateMutability": "nonpayable",
          "type": "function"
        },
        {
          "inputs": [
            {
              "internalType": "bytes32",
              "name": "spec",
              "type": "bytes32"
            },
            {
              "internalType": "address",
              "name": "role",
              "type": "address"
            }
          ],
          "name": "addRole",
          "outputs": [],
          "stateMutability": "nonpayable",
          "type": "function"
        },
        {
          "inputs": [],
          "name": "deactivateTeam",
          "outputs": [],
          "stateMutability": "nonpayable",
          "type": "function"
        },
        {
          "inputs": [],
          "name": "getActiveTeam",
          "outputs": [
            {
              "internalType": "address",
              "name": "",
              "type": "address"
            }
          ],
          "stateMutability": "view",
          "type": "function"
        },
        {
          "inputs": [
            {
              "internalType": "bytes32",
              "name": "spec",
              "type": "bytes32"
            }
          ],
          "name": "getRole",
          "outputs": [
            {
              "internalType": "address",
              "name": "",
              "type": "address"
            }
          ],
          "stateMutability": "nonpayable",
          "type": "function"
        },
        {
          "inputs": [
            {
              "internalType": "bytes32",
              "name": "spec",
              "type": "bytes32"
            }
          ],
          "name": "isPlayingRole",
          "outputs": [
            {
              "internalType": "bool",
              "name": "",
              "type": "bool"
            }
          ],
          "stateMutability": "view",
          "type": "function"
        },
        {
          "inputs": [
            {
              "internalType": "bytes32",
              "name": "spec",
              "type": "bytes32"
            }
          ],
          "name": "removeRole",
          "outputs": [],
          "stateMutability": "nonpayable",
          "type": "function"
        },
        {
          "inputs": [
            {
              "internalType": "bytes4",
              "name": "interfaceID",
              "type": "bytes4"
            }
          ],
          "name": "supportsInterface",
          "outputs": [
            {
              "internalType": "bool",
              "name": "",
              "type": "bool"
            }
          ],
          "stateMutability": "pure",
          "type": "function"
        }
      ],
      "evm": {
        "bytecode": {
          "linkReferences": {},
          "object": "608060405234801561001057600080fd5b506106fd806100206000396000f3fe608060405234801561001057600080fd5b50600436106100885760003560e01c8063ce2886e31161005b578063ce2886e314610122578063d0bf6d1514610133578063dc4b852014610146578063e959b38a1461015957600080fd5b806301ffc9a71461008d5780634ff6aa46146100b55780636e8eb7bc146100cc578063b3cac0a5146100f7575b600080fd5b6100a061009b36600461069d565b61016c565b60405190151581526020015b60405180910390f35b6100ca600180546001600160a01b0319169055565b005b6100df6100da366004610658565b6101a3565b6040516001600160a01b0390911681526020016100ac565b6100a0610105366004610658565b6000908152602081905260409020546001600160a01b0316151590565b6001546001600160a01b03166100df565b6100ca610141366004610658565b610291565b6100ca610154366004610614565b610391565b6100ca610167366004610671565b61041b565b60006301ffc9a760e01b6001600160e01b03198316148061019d57506001600160e01b0319821663b937000360e01b145b92915050565b60008181526020819052604080822054905163b3cac0a560e01b8152600481018490526001600160a01b0390911690309063b3cac0a59060240160206040518083038186803b1580156101f557600080fd5b505afa158015610209573d6000803e3d6000fd5b505050506040513d601f19601f8201168201806040525081019061022d9190610636565b1561019d57604051630800096360e41b81523060048201526001600160a01b03821690638000963090602401600060405180830381600087803b15801561027357600080fd5b505af1158015610287573d6000803e3d6000fd5b5050505092915050565b60405163b3cac0a560e01b815260048101829052309063b3cac0a59060240160206040518083038186803b1580156102c857600080fd5b505afa1580156102dc573d6000803e3d6000fd5b505050506040513d601f19601f820116820180604052508101906103009190610636565b6103075750565b600081815260208190526040808220549051630800096360e41b815260048101929092526001600160a01b0316908190638000963090602401600060405180830381600087803b15801561035a57600080fd5b505af115801561036e573d6000803e3d6000fd5b5050506000928352505060208190526040902080546001600160a01b0319169055565b60006103a4826340560c3360e11b610522565b9050806103f85760405162461bcd60e51b815260206004820152601f60248201527f446f65736e277420737570706f7274205465616d20696e746572666163652e0060448201526064015b60405180910390fd5b50600180546001600160a01b0319166001600160a01b0392909216919091179055565b6001600160a01b03811661042d575050565b6000610440826318ca552960e11b610522565b9050806104a05760405162461bcd60e51b815260206004820152602860248201527f446f65736e277420737570706f727420436f6d706f6e656e74526f6c6520696e6044820152673a32b93330b1b29760c11b60648201526084016103ef565b6000838152602081905260409081902080546001600160a01b0319166001600160a01b0385169081179091559051630800096360e41b8152306004820152839190638000963090602401600060405180830381600087803b15801561050457600080fd5b505af1158015610518573d6000803e3d6000fd5b5050505050505050565b60008080610537856301ffc9a760e01b6105c4565b9092509050811580610547575080155b156105575760009250505061019d565b610569856001600160e01b03196105c4565b909250905081158061057a57508015155b1561058a5760009250505061019d565b61059485856105c4565b90925090506001821480156105a95750806001145b156105b95760019250505061019d565b506000949350505050565b6040516301ffc9a760e01b8082526004820183905260009182919060208160248189617530fa905190969095509350505050565b80356001600160a01b038116811461060f57600080fd5b919050565b60006020828403121561062657600080fd5b61062f826105f8565b9392505050565b60006020828403121561064857600080fd5b8151801515811461062f57600080fd5b60006020828403121561066a57600080fd5b5035919050565b6000806040838503121561068457600080fd5b82359150610694602084016105f8565b90509250929050565b6000602082840312156106af57600080fd5b81356001600160e01b03198116811461062f57600080fdfea2646970667358221220dc0d558ca4cd9de7cf2c55ad61620e00bdb14e7284eead4d4308ea47065b8cfb64736f6c63430008070033",
          "opcodes": "PUSH1 0x80 PUSH1 0x40 MSTORE CALLVALUE DUP1 ISZERO PUSH2 0x10 JUMPI PUSH1 0x0 DUP1 REVERT JUMPDEST POP PUSH2 0x6FD DUP1 PUSH2 0x20 PUSH1 0x0 CODECOPY PUSH1 0x0 RETURN INVALID PUSH1 0x80 PUSH1 0x40 MSTORE CALLVALUE DUP1 ISZERO PUSH2 0x10 JUMPI PUSH1 0x0 DUP1 REVERT JUMPDEST POP PUSH1 0x4 CALLDATASIZE LT PUSH2 0x88 JUMPI PUSH1 0x0 CALLDATALOAD PUSH1 0xE0 SHR DUP1 PUSH4 0xCE2886E3 GT PUSH2 0x5B JUMPI DUP1 PUSH4 0xCE2886E3 EQ PUSH2 0x122 JUMPI DUP1 PUSH4 0xD0BF6D15 EQ PUSH2 0x133 JUMPI DUP1 PUSH4 0xDC4B8520 EQ PUSH2 0x146 JUMPI DUP1 PUSH4 0xE959B38A EQ PUSH2 0x159 JUMPI PUSH1 0x0 DUP1 REVERT JUMPDEST DUP1 PUSH4 0x1FFC9A7 EQ PUSH2 0x8D JUMPI DUP1 PUSH4 0x4FF6AA46 EQ PUSH2 0xB5 JUMPI DUP1 PUSH4 0x6E8EB7BC EQ PUSH2 0xCC JUMPI DUP1 PUSH4 0xB3CAC0A5 EQ PUSH2 0xF7 JUMPI JUMPDEST PUSH1 0x0 DUP1 REVERT JUMPDEST PUSH2 0xA0 PUSH2 0x9B CALLDATASIZE PUSH1 0x4 PUSH2 0x69D JUMP JUMPDEST PUSH2 0x16C JUMP JUMPDEST PUSH1 0x40 MLOAD SWAP1 ISZERO ISZERO DUP2 MSTORE PUSH1 0x20 ADD JUMPDEST PUSH1 0x40 MLOAD DUP1 SWAP2 SUB SWAP1 RETURN JUMPDEST PUSH2 0xCA PUSH1 0x1 DUP1 SLOAD PUSH1 0x1 PUSH1 0x1 PUSH1 0xA0 SHL SUB NOT AND SWAP1 SSTORE JUMP JUMPDEST STOP JUMPDEST PUSH2 0xDF PUSH2 0xDA CALLDATASIZE PUSH1 0x4 PUSH2 0x658 JUMP JUMPDEST PUSH2 0x1A3 JUMP JUMPDEST PUSH1 0x40 MLOAD PUSH1 0x1 PUSH1 0x1 PUSH1 0xA0 SHL SUB SWAP1 SWAP2 AND DUP2 MSTORE PUSH1 0x20 ADD PUSH2 0xAC JUMP JUMPDEST PUSH2 0xA0 PUSH2 0x105 CALLDATASIZE PUSH1 0x4 PUSH2 0x658 JUMP JUMPDEST PUSH1 0x0 SWAP1 DUP2 MSTORE PUSH1 0x20 DUP2 SWAP1 MSTORE PUSH1 0x40 SWAP1 KECCAK256 SLOAD PUSH1 0x1 PUSH1 0x1 PUSH1 0xA0 SHL SUB AND ISZERO ISZERO SWAP1 JUMP JUMPDEST PUSH1 0x1 SLOAD PUSH1 0x1 PUSH1 0x1 PUSH1 0xA0 SHL SUB AND PUSH2 0xDF JUMP JUMPDEST PUSH2 0xCA PUSH2 0x141 CALLDATASIZE PUSH1 0x4 PUSH2 0x658 JUMP JUMPDEST PUSH2 0x291 JUMP JUMPDEST PUSH2 0xCA PUSH2 0x154 CALLDATASIZE PUSH1 0x4 PUSH2 0x614 JUMP JUMPDEST PUSH2 0x391 JUMP JUMPDEST PUSH2 0xCA PUSH2 0x167 CALLDATASIZE PUSH1 0x4 PUSH2 0x671 JUMP JUMPDEST PUSH2 0x41B JUMP JUMPDEST PUSH1 0x0 PUSH4 0x1FFC9A7 PUSH1 0xE0 SHL PUSH1 0x1 PUSH1 0x1 PUSH1 0xE0 SHL SUB NOT DUP4 AND EQ DUP1 PUSH2 0x19D JUMPI POP PUSH1 0x1 PUSH1 0x1 PUSH1 0xE0 SHL SUB NOT DUP3 AND PUSH4 0xB9370003 PUSH1 0xE0 SHL EQ JUMPDEST SWAP3 SWAP2 POP POP JUMP JUMPDEST PUSH1 0x0 DUP2 DUP2 MSTORE PUSH1 0x20 DUP2 SWAP1 MSTORE PUSH1 0x40 DUP1 DUP3 KECCAK256 SLOAD SWAP1 MLOAD PUSH4 0xB3CAC0A5 PUSH1 0xE0 SHL DUP2 MSTORE PUSH1 0x4 DUP2 ADD DUP5 SWAP1 MSTORE PUSH1 0x1 PUSH1 0x1 PUSH1 0xA0 SHL SUB SWAP1 SWAP2 AND SWAP1 ADDRESS SWAP1 PUSH4 0xB3CAC0A5 SWAP1 PUSH1 0x24 ADD PUSH1 0x20 PUSH1 0x40 MLOAD DUP1 DUP4 SUB DUP2 DUP7 DUP1 EXTCODESIZE ISZERO DUP1 ISZERO PUSH2 0x1F5 JUMPI PUSH1 0x0 DUP1 REVERT JUMPDEST POP GAS STATICCALL ISZERO DUP1 ISZERO PUSH2 0x209 JUMPI RETURNDATASIZE PUSH1 0x0 DUP1 RETURNDATACOPY RETURNDATASIZE PUSH1 0x0 REVERT JUMPDEST POP POP POP POP PUSH1 0x40 MLOAD RETURNDATASIZE PUSH1 0x1F NOT PUSH1 0x1F DUP3 ADD AND DUP3 ADD DUP1 PUSH1 0x40 MSTORE POP DUP2 ADD SWAP1 PUSH2 0x22D SWAP2 SWAP1 PUSH2 0x636 JUMP JUMPDEST ISZERO PUSH2 0x19D JUMPI PUSH1 0x40 MLOAD PUSH4 0x8000963 PUSH1 0xE4 SHL DUP2 MSTORE ADDRESS PUSH1 0x4 DUP3 ADD MSTORE PUSH1 0x1 PUSH1 0x1 PUSH1 0xA0 SHL SUB DUP3 AND SWAP1 PUSH4 0x80009630 SWAP1 PUSH1 0x24 ADD PUSH1 0x0 PUSH1 0x40 MLOAD DUP1 DUP4 SUB DUP2 PUSH1 0x0 DUP8 DUP1 EXTCODESIZE ISZERO DUP1 ISZERO PUSH2 0x273 JUMPI PUSH1 0x0 DUP1 REVERT JUMPDEST POP GAS CALL ISZERO DUP1 ISZERO PUSH2 0x287 JUMPI RETURNDATASIZE PUSH1 0x0 DUP1 RETURNDATACOPY RETURNDATASIZE PUSH1 0x0 REVERT JUMPDEST POP POP POP POP SWAP3 SWAP2 POP POP JUMP JUMPDEST PUSH1 0x40 MLOAD PUSH4 0xB3CAC0A5 PUSH1 0xE0 SHL DUP2 MSTORE PUSH1 0x4 DUP2 ADD DUP3 SWAP1 MSTORE ADDRESS SWAP1 PUSH4 0xB3CAC0A5 SWAP1 PUSH1 0x24 ADD PUSH1 0x20 PUSH1 0x40 MLOAD DUP1 DUP4 SUB DUP2 DUP7 DUP1 EXTCODESIZE ISZERO DUP1 ISZERO PUSH2 0x2C8 JUMPI PUSH1 0x0 DUP1 REVERT JUMPDEST POP GAS STATICCALL ISZERO DUP1 ISZERO PUSH2 0x2DC JUMPI RETURNDATASIZE PUSH1 0x0 DUP1 RETURNDATACOPY RETURNDATASIZE PUSH1 0x0 REVERT JUMPDEST POP POP POP POP PUSH1 0x40 MLOAD RETURNDATASIZE PUSH1 0x1F NOT PUSH1 0x1F DUP3 ADD AND DUP3 ADD DUP1 PUSH1 0x40 MSTORE POP DUP2 ADD SWAP1 PUSH2 0x300 SWAP2 SWAP1 PUSH2 0x636 JUMP JUMPDEST PUSH2 0x307 JUMPI POP JUMP JUMPDEST PUSH1 0x0 DUP2 DUP2 MSTORE PUSH1 0x20 DUP2 SWAP1 MSTORE PUSH1 0x40 DUP1 DUP3 KECCAK256 SLOAD SWAP1 MLOAD PUSH4 0x8000963 PUSH1 0xE4 SHL DUP2 MSTORE PUSH1 0x4 DUP2 ADD SWAP3 SWAP1 SWAP3 MSTORE PUSH1 0x1 PUSH1 0x1 PUSH1 0xA0 SHL SUB AND SWAP1 DUP2 SWAP1 PUSH4 0x80009630 SWAP1 PUSH1 0x24 ADD PUSH1 0x0 PUSH1 0x40 MLOAD DUP1 DUP4 SUB DUP2 PUSH1 0x0 DUP8 DUP1 EXTCODESIZE ISZERO DUP1 ISZERO PUSH2 0x35A JUMPI PUSH1 0x0 DUP1 REVERT JUMPDEST POP GAS CALL ISZERO DUP1 ISZERO PUSH2 0x36E JUMPI RETURNDATASIZE PUSH1 0x0 DUP1 RETURNDATACOPY RETURNDATASIZE PUSH1 0x0 REVERT JUMPDEST POP POP POP PUSH1 0x0 SWAP3 DUP4 MSTORE POP POP PUSH1 0x20 DUP2 SWAP1 MSTORE PUSH1 0x40 SWAP1 KECCAK256 DUP1 SLOAD PUSH1 0x1 PUSH1 0x1 PUSH1 0xA0 SHL SUB NOT AND SWAP1 SSTORE JUMP JUMPDEST PUSH1 0x0 PUSH2 0x3A4 DUP3 PUSH4 0x40560C33 PUSH1 0xE1 SHL PUSH2 0x522 JUMP JUMPDEST SWAP1 POP DUP1 PUSH2 0x3F8 JUMPI PUSH1 0x40 MLOAD PUSH3 0x461BCD PUSH1 0xE5 SHL DUP2 MSTORE PUSH1 0x20 PUSH1 0x4 DUP3 ADD MSTORE PUSH1 0x1F PUSH1 0x24 DUP3 ADD MSTORE PUSH32 0x446F65736E277420737570706F7274205465616D20696E746572666163652E00 PUSH1 0x44 DUP3 ADD MSTORE PUSH1 0x64 ADD JUMPDEST PUSH1 0x40 MLOAD DUP1 SWAP2 SUB SWAP1 REVERT JUMPDEST POP PUSH1 0x1 DUP1 SLOAD PUSH1 0x1 PUSH1 0x1 PUSH1 0xA0 SHL SUB NOT AND PUSH1 0x1 PUSH1 0x1 PUSH1 0xA0 SHL SUB SWAP3 SWAP1 SWAP3 AND SWAP2 SWAP1 SWAP2 OR SWAP1 SSTORE JUMP JUMPDEST PUSH1 0x1 PUSH1 0x1 PUSH1 0xA0 SHL SUB DUP2 AND PUSH2 0x42D JUMPI POP POP JUMP JUMPDEST PUSH1 0x0 PUSH2 0x440 DUP3 PUSH4 0x18CA5529 PUSH1 0xE1 SHL PUSH2 0x522 JUMP JUMPDEST SWAP1 POP DUP1 PUSH2 0x4A0 JUMPI PUSH1 0x40 MLOAD PUSH3 0x461BCD PUSH1 0xE5 SHL DUP2 MSTORE PUSH1 0x20 PUSH1 0x4 DUP3 ADD MSTORE PUSH1 0x28 PUSH1 0x24 DUP3 ADD MSTORE PUSH32 0x446F65736E277420737570706F727420436F6D706F6E656E74526F6C6520696E PUSH1 0x44 DUP3 ADD MSTORE PUSH8 0x3A32B93330B1B297 PUSH1 0xC1 SHL PUSH1 0x64 DUP3 ADD MSTORE PUSH1 0x84 ADD PUSH2 0x3EF JUMP JUMPDEST PUSH1 0x0 DUP4 DUP2 MSTORE PUSH1 0x20 DUP2 SWAP1 MSTORE PUSH1 0x40 SWAP1 DUP2 SWAP1 KECCAK256 DUP1 SLOAD PUSH1 0x1 PUSH1 0x1 PUSH1 0xA0 SHL SUB NOT AND PUSH1 0x1 PUSH1 0x1 PUSH1 0xA0 SHL SUB DUP6 AND SWAP1 DUP2 OR SWAP1 SWAP2 SSTORE SWAP1 MLOAD PUSH4 0x8000963 PUSH1 0xE4 SHL DUP2 MSTORE ADDRESS PUSH1 0x4 DUP3 ADD MSTORE DUP4 SWAP2 SWAP1 PUSH4 0x80009630 SWAP1 PUSH1 0x24 ADD PUSH1 0x0 PUSH1 0x40 MLOAD DUP1 DUP4 SUB DUP2 PUSH1 0x0 DUP8 DUP1 EXTCODESIZE ISZERO DUP1 ISZERO PUSH2 0x504 JUMPI PUSH1 0x0 DUP1 REVERT JUMPDEST POP GAS CALL ISZERO DUP1 ISZERO PUSH2 0x518 JUMPI RETURNDATASIZE PUSH1 0x0 DUP1 RETURNDATACOPY RETURNDATASIZE PUSH1 0x0 REVERT JUMPDEST POP POP POP POP POP POP POP POP JUMP JUMPDEST PUSH1 0x0 DUP1 DUP1 PUSH2 0x537 DUP6 PUSH4 0x1FFC9A7 PUSH1 0xE0 SHL PUSH2 0x5C4 JUMP JUMPDEST SWAP1 SWAP3 POP SWAP1 POP DUP2 ISZERO DUP1 PUSH2 0x547 JUMPI POP DUP1 ISZERO JUMPDEST ISZERO PUSH2 0x557 JUMPI PUSH1 0x0 SWAP3 POP POP POP PUSH2 0x19D JUMP JUMPDEST PUSH2 0x569 DUP6 PUSH1 0x1 PUSH1 0x1 PUSH1 0xE0 SHL SUB NOT PUSH2 0x5C4 JUMP JUMPDEST SWAP1 SWAP3 POP SWAP1 POP DUP2 ISZERO DUP1 PUSH2 0x57A JUMPI POP DUP1 ISZERO ISZERO JUMPDEST ISZERO PUSH2 0x58A JUMPI PUSH1 0x0 SWAP3 POP POP POP PUSH2 0x19D JUMP JUMPDEST PUSH2 0x594 DUP6 DUP6 PUSH2 0x5C4 JUMP JUMPDEST SWAP1 SWAP3 POP SWAP1 POP PUSH1 0x1 DUP3 EQ DUP1 ISZERO PUSH2 0x5A9 JUMPI POP DUP1 PUSH1 0x1 EQ JUMPDEST ISZERO PUSH2 0x5B9 JUMPI PUSH1 0x1 SWAP3 POP POP POP PUSH2 0x19D JUMP JUMPDEST POP PUSH1 0x0 SWAP5 SWAP4 POP POP POP POP JUMP JUMPDEST PUSH1 0x40 MLOAD PUSH4 0x1FFC9A7 PUSH1 0xE0 SHL DUP1 DUP3 MSTORE PUSH1 0x4 DUP3 ADD DUP4 SWAP1 MSTORE PUSH1 0x0 SWAP2 DUP3 SWAP2 SWAP1 PUSH1 0x20 DUP2 PUSH1 0x24 DUP2 DUP10 PUSH2 0x7530 STATICCALL SWAP1 MLOAD SWAP1 SWAP7 SWAP1 SWAP6 POP SWAP4 POP POP POP POP JUMP JUMPDEST DUP1 CALLDATALOAD PUSH1 0x1 PUSH1 0x1 PUSH1 0xA0 SHL SUB DUP2 AND DUP2 EQ PUSH2 0x60F JUMPI PUSH1 0x0 DUP1 REVERT JUMPDEST SWAP2 SWAP1 POP JUMP JUMPDEST PUSH1 0x0 PUSH1 0x20 DUP3 DUP5 SUB SLT ISZERO PUSH2 0x626 JUMPI PUSH1 0x0 DUP1 REVERT JUMPDEST PUSH2 0x62F DUP3 PUSH2 0x5F8 JUMP JUMPDEST SWAP4 SWAP3 POP POP POP JUMP JUMPDEST PUSH1 0x0 PUSH1 0x20 DUP3 DUP5 SUB SLT ISZERO PUSH2 0x648 JUMPI PUSH1 0x0 DUP1 REVERT JUMPDEST DUP2 MLOAD DUP1 ISZERO ISZERO DUP2 EQ PUSH2 0x62F JUMPI PUSH1 0x0 DUP1 REVERT JUMPDEST PUSH1 0x0 PUSH1 0x20 DUP3 DUP5 SUB SLT ISZERO PUSH2 0x66A JUMPI PUSH1 0x0 DUP1 REVERT JUMPDEST POP CALLDATALOAD SWAP2 SWAP1 POP JUMP JUMPDEST PUSH1 0x0 DUP1 PUSH1 0x40 DUP4 DUP6 SUB SLT ISZERO PUSH2 0x684 JUMPI PUSH1 0x0 DUP1 REVERT JUMPDEST DUP3 CALLDATALOAD SWAP2 POP PUSH2 0x694 PUSH1 0x20 DUP5 ADD PUSH2 0x5F8 JUMP JUMPDEST SWAP1 POP SWAP3 POP SWAP3 SWAP1 POP JUMP JUMPDEST PUSH1 0x0 PUSH1 0x20 DUP3 DUP5 SUB SLT ISZERO PUSH2 0x6AF JUMPI PUSH1 0x0 DUP1 REVERT JUMPDEST DUP2 CALLDATALOAD PUSH1 0x1 PUSH1 0x1 PUSH1 0xE0 SHL SUB NOT DUP2 AND DUP2 EQ PUSH2 0x62F JUMPI PUSH1 0x0 DUP1 REVERT INVALID LOG2 PUSH5 0x6970667358 0x22 SLT KECCAK256 0xDC 0xD SSTORE DUP13 LOG4 0xCD SWAP14 0xE7 0xCF 0x2C SSTORE 0xAD PUSH2 0x620E STOP 0xBD 0xB1 0x4E PUSH19 0x84EEAD4D4308EA47065B8CFB64736F6C634300 ADDMOD SMOD STOP CALLER "
        },
        "methodIdentifiers": {
          "activateTeam(address)": "dc4b8520",
          "addRole(bytes32,address)": "e959b38a",
          "deactivateTeam()": "4ff6aa46",
          "getActiveTeam()": "ce2886e3",
          "getRole(bytes32)": "6e8eb7bc",
          "isPlayingRole(bytes32)": "b3cac0a5",
          "removeRole(bytes32)": "d0bf6d15",
          "supportsInterface(bytes4)": "01ffc9a7"
        }
      }
    }
  }
}