{
  "_format": "hh-sol-artifact-1",
  "contractName": "ComponentCore",
  "sourceName": "contracts/component-CROP/ComponentCore.sol",
  "abi": [
    {
      "anonymous": false,
      "inputs": [
        {
          "indexed": false,
          "internalType": "string",
          "name": "sampleResult",
          "type": "string"
        },
        {
          "indexed": false,
          "internalType": "bool",
          "name": "param",
          "type": "bool"
        }
      ],
      "name": "Logging",
      "type": "event"
    },
    {
      "inputs": [
        {
          "internalType": "address",
          "name": "team",
          "type": "address"
        }
      ],
      "name": "activateTeam",
      "outputs": [],
      "stateMutability": "nonpayable",
      "type": "function"
    },
    {
      "inputs": [
        {
          "internalType": "bytes32",
          "name": "spec",
          "type": "bytes32"
        },
        {
          "internalType": "address",
          "name": "role",
          "type": "address"
        }
      ],
      "name": "addRole",
      "outputs": [],
      "stateMutability": "nonpayable",
      "type": "function"
    },
    {
      "inputs": [],
      "name": "deactivateTeam",
      "outputs": [],
      "stateMutability": "nonpayable",
      "type": "function"
    },
    {
      "inputs": [],
      "name": "getActiveTeam",
      "outputs": [
        {
          "internalType": "address",
          "name": "",
          "type": "address"
        }
      ],
      "stateMutability": "view",
      "type": "function"
    },
    {
      "inputs": [
        {
          "internalType": "bytes32",
          "name": "spec",
          "type": "bytes32"
        }
      ],
      "name": "getRole",
      "outputs": [
        {
          "internalType": "address",
          "name": "",
          "type": "address"
        }
      ],
      "stateMutability": "nonpayable",
      "type": "function"
    },
    {
      "inputs": [
        {
          "internalType": "bytes32",
          "name": "spec",
          "type": "bytes32"
        }
      ],
      "name": "isPlayingRole",
      "outputs": [
        {
          "internalType": "bool",
          "name": "",
          "type": "bool"
        }
      ],
      "stateMutability": "view",
      "type": "function"
    },
    {
      "inputs": [
        {
          "internalType": "bytes32",
          "name": "spec",
          "type": "bytes32"
        }
      ],
      "name": "removeRole",
      "outputs": [],
      "stateMutability": "nonpayable",
      "type": "function"
    },
    {
      "inputs": [
        {
          "internalType": "bytes4",
          "name": "interfaceID",
          "type": "bytes4"
        }
      ],
      "name": "supportsInterface",
      "outputs": [
        {
          "internalType": "bool",
          "name": "",
          "type": "bool"
        }
      ],
      "stateMutability": "pure",
      "type": "function"
    }
  ],
  "bytecode": "0x608060405234801561001057600080fd5b506106fd806100206000396000f3fe608060405234801561001057600080fd5b50600436106100885760003560e01c8063ce2886e31161005b578063ce2886e314610122578063d0bf6d1514610133578063dc4b852014610146578063e959b38a1461015957600080fd5b806301ffc9a71461008d5780634ff6aa46146100b55780636e8eb7bc146100cc578063b3cac0a5146100f7575b600080fd5b6100a061009b36600461069d565b61016c565b60405190151581526020015b60405180910390f35b6100ca600180546001600160a01b0319169055565b005b6100df6100da366004610658565b6101a3565b6040516001600160a01b0390911681526020016100ac565b6100a0610105366004610658565b6000908152602081905260409020546001600160a01b0316151590565b6001546001600160a01b03166100df565b6100ca610141366004610658565b610291565b6100ca610154366004610614565b610391565b6100ca610167366004610671565b61041b565b60006301ffc9a760e01b6001600160e01b03198316148061019d57506001600160e01b0319821663b937000360e01b145b92915050565b60008181526020819052604080822054905163b3cac0a560e01b8152600481018490526001600160a01b0390911690309063b3cac0a59060240160206040518083038186803b1580156101f557600080fd5b505afa158015610209573d6000803e3d6000fd5b505050506040513d601f19601f8201168201806040525081019061022d9190610636565b1561019d57604051630800096360e41b81523060048201526001600160a01b03821690638000963090602401600060405180830381600087803b15801561027357600080fd5b505af1158015610287573d6000803e3d6000fd5b5050505092915050565b60405163b3cac0a560e01b815260048101829052309063b3cac0a59060240160206040518083038186803b1580156102c857600080fd5b505afa1580156102dc573d6000803e3d6000fd5b505050506040513d601f19601f820116820180604052508101906103009190610636565b6103075750565b600081815260208190526040808220549051630800096360e41b815260048101929092526001600160a01b0316908190638000963090602401600060405180830381600087803b15801561035a57600080fd5b505af115801561036e573d6000803e3d6000fd5b5050506000928352505060208190526040902080546001600160a01b0319169055565b60006103a4826340560c3360e11b610522565b9050806103f85760405162461bcd60e51b815260206004820152601f60248201527f446f65736e277420737570706f7274205465616d20696e746572666163652e0060448201526064015b60405180910390fd5b50600180546001600160a01b0319166001600160a01b0392909216919091179055565b6001600160a01b03811661042d575050565b6000610440826318ca552960e11b610522565b9050806104a05760405162461bcd60e51b815260206004820152602860248201527f446f65736e277420737570706f727420436f6d706f6e656e74526f6c6520696e6044820152673a32b93330b1b29760c11b60648201526084016103ef565b6000838152602081905260409081902080546001600160a01b0319166001600160a01b0385169081179091559051630800096360e41b8152306004820152839190638000963090602401600060405180830381600087803b15801561050457600080fd5b505af1158015610518573d6000803e3d6000fd5b5050505050505050565b60008080610537856301ffc9a760e01b6105c4565b9092509050811580610547575080155b156105575760009250505061019d565b610569856001600160e01b03196105c4565b909250905081158061057a57508015155b1561058a5760009250505061019d565b61059485856105c4565b90925090506001821480156105a95750806001145b156105b95760019250505061019d565b506000949350505050565b6040516301ffc9a760e01b8082526004820183905260009182919060208160248189617530fa905190969095509350505050565b80356001600160a01b038116811461060f57600080fd5b919050565b60006020828403121561062657600080fd5b61062f826105f8565b9392505050565b60006020828403121561064857600080fd5b8151801515811461062f57600080fd5b60006020828403121561066a57600080fd5b5035919050565b6000806040838503121561068457600080fd5b82359150610694602084016105f8565b90509250929050565b6000602082840312156106af57600080fd5b81356001600160e01b03198116811461062f57600080fdfea2646970667358221220dc0d558ca4cd9de7cf2c55ad61620e00bdb14e7284eead4d4308ea47065b8cfb64736f6c63430008070033",
  "linkReferences": {},
  "deployedLinkReferences": {}
}