{
  "_format": "hh-sol-artifact-1",
  "contractName": "CellMaintenanceAgent",
  "sourceName": "contracts/CellMaintenanceAgent.sol",
  "abi": [
    {
      "anonymous": false,
      "inputs": [
        {
          "indexed": false,
          "internalType": "string",
          "name": "description",
          "type": "string"
        },
        {
          "indexed": false,
          "internalType": "string",
          "name": "problemDefinition",
          "type": "string"
        }
      ],
      "name": "Logging",
      "type": "event"
    },
    {
      "inputs": [
        {
          "internalType": "string",
          "name": "_description",
          "type": "string"
        },
        {
          "internalType": "string",
          "name": "_problemDefinition",
          "type": "string"
        }
      ],
      "name": "assignLogging",
      "outputs": [],
      "stateMutability": "nonpayable",
      "type": "function"
    }
  ],
  "bytecode": "0x608060405234801561001057600080fd5b5061023a806100206000396000f3fe608060405234801561001057600080fd5b506004361061002b5760003560e01c80630e950a6d14610030575b600080fd5b61004361003e36600461010f565b610045565b005b7fa9d91cc697596a622987557e6e267f14696c1f90ad12b28a22d1d35afdaf683e82826040516100769291906101c0565b60405180910390a15050565b600082601f83011261009357600080fd5b813567ffffffffffffffff808211156100ae576100ae6101ee565b604051601f8301601f19908116603f011681019082821181831017156100d6576100d66101ee565b816040528381528660208588010111156100ef57600080fd5b836020870160208301376000602085830101528094505050505092915050565b6000806040838503121561012257600080fd5b823567ffffffffffffffff8082111561013a57600080fd5b61014686838701610082565b9350602085013591508082111561015c57600080fd5b5061016985828601610082565b9150509250929050565b6000815180845260005b818110156101995760208185018101518683018201520161017d565b818111156101ab576000602083870101525b50601f01601f19169290920160200192915050565b6040815260006101d36040830185610173565b82810360208401526101e58185610173565b95945050505050565b634e487b7160e01b600052604160045260246000fdfea26469706673582212208a1853a0637a2927ad7412dcc3a7c45e98376e782846e2f40ccf6b655323228b64736f6c63430008070033",
  "linkReferences": {},
  "deployedLinkReferences": {}
}