{
  "contractName": "Fundraiser",
  "abi": [
    {
      "inputs": [
        {
          "internalType": "string",
          "name": "_name",
          "type": "string"
        },
        {
          "internalType": "string",
          "name": "_url",
          "type": "string"
        },
        {
          "internalType": "string",
          "name": "_imageURL",
          "type": "string"
        },
        {
          "internalType": "string",
          "name": "_description",
          "type": "string"
        },
        {
          "internalType": "address payable",
          "name": "_beneficiary",
          "type": "address"
        },
        {
          "internalType": "address",
          "name": "_custodian",
          "type": "address"
        }
      ],
      "stateMutability": "nonpayable",
      "type": "constructor"
    },
    {
      "anonymous": false,
      "inputs": [
        {
          "indexed": true,
          "internalType": "address",
          "name": "donor",
          "type": "address"
        },
        {
          "indexed": false,
          "internalType": "uint256",
          "name": "value",
          "type": "uint256"
        }
      ],
      "name": "DonationConfirmed",
      "type": "event"
    },
    {
      "anonymous": false,
      "inputs": [
        {
          "indexed": true,
          "internalType": "address",
          "name": "previousOwner",
          "type": "address"
        },
        {
          "indexed": true,
          "internalType": "address",
          "name": "newOwner",
          "type": "address"
        }
      ],
      "name": "OwnershipTransferred",
      "type": "event"
    },
    {
      "anonymous": false,
      "inputs": [
        {
          "indexed": false,
          "internalType": "string",
          "name": "description",
          "type": "string"
        },
        {
          "indexed": false,
          "internalType": "uint256",
          "name": "amount",
          "type": "uint256"
        }
      ],
      "name": "WithdrawDonation",
      "type": "event"
    },
    {
      "stateMutability": "payable",
      "type": "fallback"
    },
    {
      "inputs": [],
      "name": "beneficiary",
      "outputs": [
        {
          "internalType": "address payable",
          "name": "",
          "type": "address"
        }
      ],
      "stateMutability": "view",
      "type": "function"
    },
    {
      "inputs": [],
      "name": "description",
      "outputs": [
        {
          "internalType": "string",
          "name": "",
          "type": "string"
        }
      ],
      "stateMutability": "view",
      "type": "function"
    },
    {
      "inputs": [],
      "name": "donationCount",
      "outputs": [
        {
          "internalType": "uint256",
          "name": "",
          "type": "uint256"
        }
      ],
      "stateMutability": "view",
      "type": "function"
    },
    {
      "inputs": [],
      "name": "imageURL",
      "outputs": [
        {
          "internalType": "string",
          "name": "",
          "type": "string"
        }
      ],
      "stateMutability": "view",
      "type": "function"
    },
    {
      "inputs": [],
      "name": "name",
      "outputs": [
        {
          "internalType": "string",
          "name": "",
          "type": "string"
        }
      ],
      "stateMutability": "view",
      "type": "function"
    },
    {
      "inputs": [],
      "name": "owner",
      "outputs": [
        {
          "internalType": "address",
          "name": "",
          "type": "address"
        }
      ],
      "stateMutability": "view",
      "type": "function"
    },
    {
      "inputs": [],
      "name": "ownerAccount",
      "outputs": [
        {
          "internalType": "address",
          "name": "",
          "type": "address"
        }
      ],
      "stateMutability": "view",
      "type": "function"
    },
    {
      "inputs": [],
      "name": "publicDonations",
      "outputs": [
        {
          "internalType": "uint256",
          "name": "",
          "type": "uint256"
        }
      ],
      "stateMutability": "view",
      "type": "function"
    },
    {
      "inputs": [],
      "name": "renounceOwnership",
      "outputs": [],
      "stateMutability": "nonpayable",
      "type": "function"
    },
    {
      "inputs": [
        {
          "internalType": "address",
          "name": "newOwner",
          "type": "address"
        }
      ],
      "name": "transferOwnership",
      "outputs": [],
      "stateMutability": "nonpayable",
      "type": "function"
    },
    {
      "inputs": [],
      "name": "url",
      "outputs": [
        {
          "internalType": "string",
          "name": "",
          "type": "string"
        }
      ],
      "stateMutability": "view",
      "type": "function"
    },
    {
      "inputs": [
        {
          "internalType": "address payable",
          "name": "_beneficiary",
          "type": "address"
        }
      ],
      "name": "setBeneficiary",
      "outputs": [],
      "stateMutability": "nonpayable",
      "type": "function"
    },
    {
      "inputs": [],
      "name": "getDonationCounts",
      "outputs": [
        {
          "internalType": "uint256",
          "name": "",
          "type": "uint256"
        }
      ],
      "stateMutability": "view",
      "type": "function"
    },
    {
      "inputs": [],
      "name": "donate",
      "outputs": [],
      "stateMutability": "payable",
      "type": "function"
    },
    {
      "inputs": [],
      "name": "occurredDonations",
      "outputs": [
        {
          "internalType": "uint256[]",
          "name": "values",
          "type": "uint256[]"
        },
        {
          "internalType": "uint256[]",
          "name": "dates",
          "type": "uint256[]"
        }
      ],
      "stateMutability": "view",
      "type": "function"
    },
    {
      "inputs": [],
      "name": "withdrawDonation",
      "outputs": [],
      "stateMutability": "nonpayable",
      "type": "function"
    }
  ],
  "bytecode": "0x60806040523480156200001157600080fd5b506040516200192038038062001920833981810160405281019062000037919062000371565b620000576200004b6200014960201b60201c565b6200015160201b60201c565b85600290805190602001906200006f92919062000215565b5084600390805190602001906200008892919062000215565b508360049080519060200190620000a192919062000215565b508260059080519060200190620000ba92919062000215565b5081600660006101000a81548173ffffffffffffffffffffffffffffffffffffffff021916908373ffffffffffffffffffffffffffffffffffffffff16021790555080600760006101000a81548173ffffffffffffffffffffffffffffffffffffffff021916908373ffffffffffffffffffffffffffffffffffffffff16021790555050505050505062000689565b600033905090565b60008060009054906101000a900473ffffffffffffffffffffffffffffffffffffffff169050816000806101000a81548173ffffffffffffffffffffffffffffffffffffffff021916908373ffffffffffffffffffffffffffffffffffffffff1602179055508173ffffffffffffffffffffffffffffffffffffffff168173ffffffffffffffffffffffffffffffffffffffff167f8be0079c531659141344cd1fd0a4f28419497f9722a3daafe3b4186f6b6457e060405160405180910390a35050565b828054620002239062000566565b90600052602060002090601f01602090048101928262000247576000855562000293565b82601f106200026257805160ff191683800117855562000293565b8280016001018555821562000293579182015b828111156200029257825182559160200191906001019062000275565b5b509050620002a29190620002a6565b5090565b5b80821115620002c1576000816000905550600101620002a7565b5090565b6000620002dc620002d684620004b2565b62000489565b905082815260208101848484011115620002fb57620002fa62000635565b5b6200030884828562000530565b509392505050565b600081519050620003218162000655565b92915050565b60008151905062000338816200066f565b92915050565b600082601f83011262000356576200035562000630565b5b815162000368848260208601620002c5565b91505092915050565b60008060008060008060c087890312156200039157620003906200063f565b5b600087015167ffffffffffffffff811115620003b257620003b16200063a565b5b620003c089828a016200033e565b965050602087015167ffffffffffffffff811115620003e457620003e36200063a565b5b620003f289828a016200033e565b955050604087015167ffffffffffffffff8111156200041657620004156200063a565b5b6200042489828a016200033e565b945050606087015167ffffffffffffffff8111156200044857620004476200063a565b5b6200045689828a016200033e565b93505060806200046989828a0162000327565b92505060a06200047c89828a0162000310565b9150509295509295509295565b600062000495620004a8565b9050620004a382826200059c565b919050565b6000604051905090565b600067ffffffffffffffff821115620004d057620004cf62000601565b5b620004db8262000644565b9050602081019050919050565b6000620004f58262000510565b9050919050565b6000620005098262000510565b9050919050565b600073ffffffffffffffffffffffffffffffffffffffff82169050919050565b60005b838110156200055057808201518184015260208101905062000533565b8381111562000560576000848401525b50505050565b600060028204905060018216806200057f57607f821691505b60208210811415620005965762000595620005d2565b5b50919050565b620005a78262000644565b810181811067ffffffffffffffff82111715620005c957620005c862000601565b5b80604052505050565b7f4e487b7100000000000000000000000000000000000000000000000000000000600052602260045260246000fd5b7f4e487b7100000000000000000000000000000000000000000000000000000000600052604160045260246000fd5b600080fd5b600080fd5b600080fd5b600080fd5b6000601f19601f8301169050919050565b6200066081620004e8565b81146200066c57600080fd5b50565b6200067a81620004fc565b81146200068657600080fd5b50565b61128780620006996000396000f3fe6080604052600436106100f75760003560e01c80638da5cb5b1161008a578063e81e1ccc11610059578063e81e1ccc1461031c578063ea47cb2414610333578063ed88c68e1461035e578063f2fde38b14610368576100f8565b80638da5cb5b1461026f5780639992438c1461029a5780639ff44d26146102c6578063b90497e0146102f1576100f8565b806338af3eed116100c657806338af3eed146101d75780635600f04f14610202578063715018a61461022d5780637284e41614610244576100f8565b806306fdde031461012d5780631c31f710146101585780632abfab4d146101815780632de44111146101ac576100f8565b5b61010d3460085461039190919063ffffffff16565b6008819055506009600081548092919061012690611067565b9190505550005b34801561013957600080fd5b506101426103a7565b60405161014f9190610e5e565b60405180910390f35b34801561016457600080fd5b5061017f600480360381019061017a9190610c70565b610435565b005b34801561018d57600080fd5b50610196610481565b6040516101a39190610eee565b60405180910390f35b3480156101b857600080fd5b506101c1610487565b6040516101ce9190610eee565b60405180910390f35b3480156101e357600080fd5b506101ec61048d565b6040516101f99190610e0c565b60405180910390f35b34801561020e57600080fd5b506102176104b3565b6040516102249190610e5e565b60405180910390f35b34801561023957600080fd5b50610242610541565b005b34801561025057600080fd5b50610259610555565b6040516102669190610e5e565b60405180910390f35b34801561027b57600080fd5b506102846105e3565b6040516102919190610df1565b60405180910390f35b3480156102a657600080fd5b506102af61060c565b6040516102bd929190610e27565b60405180910390f35b3480156102d257600080fd5b506102db610781565b6040516102e89190610eee565b60405180910390f35b3480156102fd57600080fd5b506103066107cb565b6040516103139190610e5e565b60405180910390f35b34801561032857600080fd5b50610331610859565b005b34801561033f57600080fd5b50610348610909565b6040516103559190610df1565b60405180910390f35b61036661092f565b005b34801561037457600080fd5b5061038f600480360381019061038a9190610c43565b610a4b565b005b6000818361039f9190610f5e565b905092915050565b600280546103b490611035565b80601f01602080910402602001604051908101604052809291908181526020018280546103e090611035565b801561042d5780601f106104025761010080835404028352916020019161042d565b820191906000526020600020905b81548152906001019060200180831161041057829003601f168201915b505050505081565b61043d610acf565b80600660006101000a81548173ffffffffffffffffffffffffffffffffffffffff021916908373ffffffffffffffffffffffffffffffffffffffff16021790555050565b60095481565b60085481565b600660009054906101000a900473ffffffffffffffffffffffffffffffffffffffff1681565b600380546104c090611035565b80601f01602080910402602001604051908101604052809291908181526020018280546104ec90611035565b80156105395780601f1061050e57610100808354040283529160200191610539565b820191906000526020600020905b81548152906001019060200180831161051c57829003601f168201915b505050505081565b610549610acf565b6105536000610b4d565b565b6005805461056290611035565b80601f016020809104026020016040519081016040528092919081815260200182805461058e90611035565b80156105db5780601f106105b0576101008083540402835291602001916105db565b820191906000526020600020905b8154815290600101906020018083116105be57829003601f168201915b505050505081565b60008060009054906101000a900473ffffffffffffffffffffffffffffffffffffffff16905090565b6060806000610619610781565b90508067ffffffffffffffff8111156106355761063461113d565b5b6040519080825280602002602001820160405280156106635781602001602082028036833780820191505090505b5092508067ffffffffffffffff8111156106805761067f61113d565b5b6040519080825280602002602001820160405280156106ae5781602001602082028036833780820191505090505b50915060005b8181101561077b576000600160003373ffffffffffffffffffffffffffffffffffffffff1673ffffffffffffffffffffffffffffffffffffffff168152602001908152602001600020828154811061070f5761070e61110e565b5b9060005260206000209060020201905080600001548583815181106107375761073661110e565b5b602002602001018181525050806001015484838151811061075b5761075a61110e565b5b60200260200101818152505050808061077390611067565b9150506106b4565b50509091565b6000600160003373ffffffffffffffffffffffffffffffffffffffff1673ffffffffffffffffffffffffffffffffffffffff16815260200190815260200160002080549050905090565b600480546107d890611035565b80601f016020809104026020016040519081016040528092919081815260200182805461080490611035565b80156108515780601f1061082657610100808354040283529160200191610851565b820191906000526020600020905b81548152906001019060200180831161083457829003601f168201915b505050505081565b610861610acf565b6000479050600660009054906101000a900473ffffffffffffffffffffffffffffffffffffffff1673ffffffffffffffffffffffffffffffffffffffff166108fc829081150290604051600060405180830381858888f193505050501580156108ce573d6000803e3d6000fd5b507fd47c68243caaddb53a95cf682d4bcf4ef59f0c54c270bc0181f0213df2ba7365816040516108fe9190610ec0565b60405180910390a150565b600760009054906101000a900473ffffffffffffffffffffffffffffffffffffffff1681565b60006040518060400160405280348152602001428152509050600160003373ffffffffffffffffffffffffffffffffffffffff1673ffffffffffffffffffffffffffffffffffffffff168152602001908152602001600020819080600181540180825580915050600190039060005260206000209060020201600090919091909150600082015181600001556020820151816001015550506109dc3460085461039190919063ffffffff16565b600881905550600960008154809291906109f590611067565b91905055503373ffffffffffffffffffffffffffffffffffffffff167f5f892826e853f98486e1c28e98dbed781fa2ddccbac8d8430a400efca37de21534604051610a409190610eee565b60405180910390a250565b610a53610acf565b600073ffffffffffffffffffffffffffffffffffffffff168173ffffffffffffffffffffffffffffffffffffffff161415610ac3576040517f08c379a0000000000000000000000000000000000000000000000000000000008152600401610aba90610e80565b60405180910390fd5b610acc81610b4d565b50565b610ad7610c11565b73ffffffffffffffffffffffffffffffffffffffff16610af56105e3565b73ffffffffffffffffffffffffffffffffffffffff1614610b4b576040517f08c379a0000000000000000000000000000000000000000000000000000000008152600401610b4290610ea0565b60405180910390fd5b565b60008060009054906101000a900473ffffffffffffffffffffffffffffffffffffffff169050816000806101000a81548173ffffffffffffffffffffffffffffffffffffffff021916908373ffffffffffffffffffffffffffffffffffffffff1602179055508173ffffffffffffffffffffffffffffffffffffffff168173ffffffffffffffffffffffffffffffffffffffff167f8be0079c531659141344cd1fd0a4f28419497f9722a3daafe3b4186f6b6457e060405160405180910390a35050565b600033905090565b600081359050610c2881611223565b92915050565b600081359050610c3d8161123a565b92915050565b600060208284031215610c5957610c5861116c565b5b6000610c6784828501610c19565b91505092915050565b600060208284031215610c8657610c8561116c565b5b6000610c9484828501610c2e565b91505092915050565b6000610ca98383610dd3565b60208301905092915050565b610cbe81610fc6565b82525050565b610ccd81610fb4565b82525050565b6000610cde82610f19565b610ce88185610f3c565b9350610cf383610f09565b8060005b83811015610d24578151610d0b8882610c9d565b9750610d1683610f2f565b925050600181019050610cf7565b5085935050505092915050565b6000610d3c82610f24565b610d468185610f4d565b9350610d56818560208601611002565b610d5f81611171565b840191505092915050565b6000610d77602683610f4d565b9150610d8282611182565b604082019050919050565b6000610d9a602083610f4d565b9150610da5826111d1565b602082019050919050565b6000610dbd601c83610f4d565b9150610dc8826111fa565b602082019050919050565b610ddc81610ff8565b82525050565b610deb81610ff8565b82525050565b6000602082019050610e066000830184610cc4565b92915050565b6000602082019050610e216000830184610cb5565b92915050565b60006040820190508181036000830152610e418185610cd3565b90508181036020830152610e558184610cd3565b90509392505050565b60006020820190508181036000830152610e788184610d31565b905092915050565b60006020820190508181036000830152610e9981610d6a565b9050919050565b60006020820190508181036000830152610eb981610d8d565b9050919050565b60006040820190508181036000830152610ed981610db0565b9050610ee86020830184610de2565b92915050565b6000602082019050610f036000830184610de2565b92915050565b6000819050602082019050919050565b600081519050919050565b600081519050919050565b6000602082019050919050565b600082825260208201905092915050565b600082825260208201905092915050565b6000610f6982610ff8565b9150610f7483610ff8565b9250827fffffffffffffffffffffffffffffffffffffffffffffffffffffffffffffffff03821115610fa957610fa86110b0565b5b828201905092915050565b6000610fbf82610fd8565b9050919050565b6000610fd182610fd8565b9050919050565b600073ffffffffffffffffffffffffffffffffffffffff82169050919050565b6000819050919050565b60005b83811015611020578082015181840152602081019050611005565b8381111561102f576000848401525b50505050565b6000600282049050600182168061104d57607f821691505b60208210811415611061576110606110df565b5b50919050565b600061107282610ff8565b91507fffffffffffffffffffffffffffffffffffffffffffffffffffffffffffffffff8214156110a5576110a46110b0565b5b600182019050919050565b7f4e487b7100000000000000000000000000000000000000000000000000000000600052601160045260246000fd5b7f4e487b7100000000000000000000000000000000000000000000000000000000600052602260045260246000fd5b7f4e487b7100000000000000000000000000000000000000000000000000000000600052603260045260246000fd5b7f4e487b7100000000000000000000000000000000000000000000000000000000600052604160045260246000fd5b600080fd5b6000601f19601f8301169050919050565b7f4f776e61626c653a206e6577206f776e657220697320746865207a65726f206160008201527f6464726573730000000000000000000000000000000000000000000000000000602082015250565b7f4f776e61626c653a2063616c6c6572206973206e6f7420746865206f776e6572600082015250565b7f4469657365204265747261672077757264652061626765686f62656e00000000600082015250565b61122c81610fb4565b811461123757600080fd5b50565b61124381610fc6565b811461124e57600080fd5b5056fea2646970667358221220d8918f502b7b4f99bd17e87df89624e301c03a60be303d49e3fb2639f310fc4964736f6c63430008070033",
  "immutableReferences": {},
  "source": "//SPDX-License-Identifier: MIT\npragma solidity >=0.8.7; \n\nimport \"@openzeppelin/contracts/access/Ownable.sol\"; \nimport \"@openzeppelin/contracts/utils/math/SafeMath.sol\";\n\ncontract Fundraiser is Ownable {\n\n    using SafeMath for uint256; \n\n    struct Donation {\n        uint256 value; \n        uint256 date; \n    }\n\n    mapping(address => Donation[]) private _donations; \n\n    event DonationConfirmed(address indexed donor, uint256 value); \n    event WithdrawDonation(string description, uint256 amount); \n\n    string public name; \n    string public url; \n    string public imageURL; \n    string public description; \n\n    address payable public beneficiary; \n    address public ownerAccount; \n\n    uint256 public publicDonations; //Es zeigt die Anzahl der Spenden \n    uint256 public donationCount; \n\n    constructor(string memory _name, string memory _url, string memory _imageURL, string memory _description, address payable _beneficiary, address _custodian) {\n        name = _name; \n        url = _url; \n        imageURL = _imageURL; \n        description = _description; \n        beneficiary = _beneficiary; \n        ownerAccount = _custodian;\n    }\n\n    function setBeneficiary(address payable _beneficiary) public onlyOwner {\n        beneficiary = _beneficiary;\n\n    }\n\n    function getDonationCounts() public view returns(uint256) {\n        return _donations[msg.sender].length; \n    }\n\n    function donate() public payable {\n        Donation memory donation = Donation( {\n            value: msg.value,\n            date: block.timestamp \n        }); \n        _donations[msg.sender].push(donation); \n        publicDonations = publicDonations.add(msg.value); \n        donationCount++; \n\n        emit DonationConfirmed(msg.sender, msg.value);\n    }\n\n    function occurredDonations() public view returns(uint256[] memory values, uint256[] memory dates) {\n        // uint256[] memory values; \n        // uint256[] memory dates; \n\n        uint256 count = getDonationCounts(); \n        values = new uint256[](count); \n        dates = new uint256[](count); \n\n        for(uint256 i = 0; i < count; i++) {\n            Donation storage donation = _donations[msg.sender][i]; \n            values[i] = donation.value; \n            dates[i] = donation.date; \n        }\n\n        return (values, dates);\n    }\n\n    function withdrawDonation() public onlyOwner {\n        uint256 balance  = address(this).balance; \n        beneficiary.transfer(balance); \n        emit WithdrawDonation(\"Diese Betrag wurde abgehoben\", balance); \n    }\n\n    fallback() external payable {\n        publicDonations = publicDonations.add(msg.value); \n        donationCount++;\n    }\n}",
  "sourcePath": "/media/zoint/D0F4-36FA/AllFiles/Projeler/zointblackbriar/Smart_Contract_Examples/BuildingEthereumDapps/contracts/Fundraiser.sol",
  "compiler": {
    "name": "solc",
    "version": "0.8.7+commit.e28d00a7.Emscripten.clang"
  },
  "schemaVersion": "3.4.7",
  "updatedAt": "2022-07-25T22:17:01.162Z",
  "devdoc": {
    "kind": "dev",
    "methods": {
      "owner()": {
        "details": "Returns the address of the current owner."
      },
      "renounceOwnership()": {
        "details": "Leaves the contract without owner. It will not be possible to call `onlyOwner` functions anymore. Can only be called by the current owner. NOTE: Renouncing ownership will leave the contract without an owner, thereby removing any functionality that is only available to the owner."
      },
      "transferOwnership(address)": {
        "details": "Transfers ownership of the contract to a new account (`newOwner`). Can only be called by the current owner."
      }
    },
    "version": 1
  },
  "userdoc": {
    "kind": "user",
    "methods": {},
    "version": 1
  }
}