{
  "contractName": "Greeter",
  "abi": [
    {
      "inputs": [
        {
          "internalType": "string",
          "name": "_greeting",
          "type": "string"
        }
      ],
      "stateMutability": "nonpayable",
      "type": "constructor"
    },
    {
      "inputs": [],
      "name": "getGreeting",
      "outputs": [
        {
          "internalType": "string",
          "name": "",
          "type": "string"
        }
      ],
      "stateMutability": "view",
      "type": "function"
    },
    {
      "inputs": [
        {
          "internalType": "string",
          "name": "_greeting",
          "type": "string"
        }
      ],
      "name": "setGreeting",
      "outputs": [],
      "stateMutability": "nonpayable",
      "type": "function"
    },
    {
      "inputs": [],
      "name": "getOwner",
      "outputs": [
        {
          "internalType": "address",
          "name": "",
          "type": "address"
        }
      ],
      "stateMutability": "view",
      "type": "function"
    }
  ],
  "bytecode": "0x60806040523480156200001157600080fd5b5060405162000902380380620009028339818101604052810190620000379190620001c6565b80600090805190602001906200004f92919062000098565b5033600160006101000a81548173ffffffffffffffffffffffffffffffffffffffff021916908373ffffffffffffffffffffffffffffffffffffffff160217905550506200039b565b828054620000a690620002ac565b90600052602060002090601f016020900481019282620000ca576000855562000116565b82601f10620000e557805160ff191683800117855562000116565b8280016001018555821562000116579182015b8281111562000115578251825591602001919060010190620000f8565b5b50905062000125919062000129565b5090565b5b80821115620001445760008160009055506001016200012a565b5090565b60006200015f620001598462000240565b62000217565b9050828152602081018484840111156200017e576200017d6200037b565b5b6200018b84828562000276565b509392505050565b600082601f830112620001ab57620001aa62000376565b5b8151620001bd84826020860162000148565b91505092915050565b600060208284031215620001df57620001de62000385565b5b600082015167ffffffffffffffff8111156200020057620001ff62000380565b5b6200020e8482850162000193565b91505092915050565b60006200022362000236565b9050620002318282620002e2565b919050565b6000604051905090565b600067ffffffffffffffff8211156200025e576200025d62000347565b5b62000269826200038a565b9050602081019050919050565b60005b838110156200029657808201518184015260208101905062000279565b83811115620002a6576000848401525b50505050565b60006002820490506001821680620002c557607f821691505b60208210811415620002dc57620002db62000318565b5b50919050565b620002ed826200038a565b810181811067ffffffffffffffff821117156200030f576200030e62000347565b5b80604052505050565b7f4e487b7100000000000000000000000000000000000000000000000000000000600052602260045260246000fd5b7f4e487b7100000000000000000000000000000000000000000000000000000000600052604160045260246000fd5b600080fd5b600080fd5b600080fd5b600080fd5b6000601f19601f8301169050919050565b61055780620003ab6000396000f3fe608060405234801561001057600080fd5b50600436106100415760003560e01c8063893d20e814610046578063a413686214610064578063fe50cc7214610080575b600080fd5b61004e61009e565b60405161005b9190610318565b60405180910390f35b61007e60048036038101906100799190610287565b6100c8565b005b6100886100e2565b6040516100959190610333565b60405180910390f35b6000600160009054906101000a900473ffffffffffffffffffffffffffffffffffffffff16905090565b80600090805190602001906100de929190610174565b5050565b6060600080546100f19061043b565b80601f016020809104026020016040519081016040528092919081815260200182805461011d9061043b565b801561016a5780601f1061013f5761010080835404028352916020019161016a565b820191906000526020600020905b81548152906001019060200180831161014d57829003601f168201915b5050505050905090565b8280546101809061043b565b90600052602060002090601f0160209004810192826101a257600085556101e9565b82601f106101bb57805160ff19168380011785556101e9565b828001600101855582156101e9579182015b828111156101e85782518255916020019190600101906101cd565b5b5090506101f691906101fa565b5090565b5b808211156102135760008160009055506001016101fb565b5090565b600061022a6102258461037a565b610355565b90508281526020810184848401111561024657610245610501565b5b6102518482856103f9565b509392505050565b600082601f83011261026e5761026d6104fc565b5b813561027e848260208601610217565b91505092915050565b60006020828403121561029d5761029c61050b565b5b600082013567ffffffffffffffff8111156102bb576102ba610506565b5b6102c784828501610259565b91505092915050565b6102d9816103c7565b82525050565b60006102ea826103ab565b6102f481856103b6565b9350610304818560208601610408565b61030d81610510565b840191505092915050565b600060208201905061032d60008301846102d0565b92915050565b6000602082019050818103600083015261034d81846102df565b905092915050565b600061035f610370565b905061036b828261046d565b919050565b6000604051905090565b600067ffffffffffffffff821115610395576103946104cd565b5b61039e82610510565b9050602081019050919050565b600081519050919050565b600082825260208201905092915050565b60006103d2826103d9565b9050919050565b600073ffffffffffffffffffffffffffffffffffffffff82169050919050565b82818337600083830152505050565b60005b8381101561042657808201518184015260208101905061040b565b83811115610435576000848401525b50505050565b6000600282049050600182168061045357607f821691505b602082108114156104675761046661049e565b5b50919050565b61047682610510565b810181811067ffffffffffffffff82111715610495576104946104cd565b5b80604052505050565b7f4e487b7100000000000000000000000000000000000000000000000000000000600052602260045260246000fd5b7f4e487b7100000000000000000000000000000000000000000000000000000000600052604160045260246000fd5b600080fd5b600080fd5b600080fd5b600080fd5b6000601f19601f830116905091905056fea26469706673582212208d5feb782643b9757940e02f1214545aefe3a46919cfc5429d08ffe81f48b7fc64736f6c63430008070033",
  "immutableReferences": {},
  "source": "//SPDX-License-Identifier: MIT\n\npragma solidity >=0.8.7; \n\n\ncontract Greeter {\n    string private greeting; \n    address private owner;\n\n    constructor(string memory _greeting) {\n        greeting = _greeting;\n        owner = msg.sender;\n    }\n\n    function getGreeting() external view returns(string memory) {\n        return greeting;\n    }\n\n    function setGreeting(string memory _greeting) external  {\n        greeting = _greeting; \n    }\n\n    function getOwner() external view returns(address) {\n        return owner;\n    }\n}",
  "sourcePath": "/media/zoint/D0F4-36FA/AllFiles/Projeler/zointblackbriar/Smart_Contract_Examples/BuildingEthereumDapps/contracts/Greeter.sol",
  "compiler": {
    "name": "solc",
    "version": "0.8.7+commit.e28d00a7.Emscripten.clang"
  },
  "schemaVersion": "3.4.7",
  "updatedAt": "2022-07-25T22:17:01.187Z",
  "devdoc": {
    "kind": "dev",
    "methods": {},
    "version": 1
  },
  "userdoc": {
    "kind": "user",
    "methods": {},
    "version": 1
  }
}