{
  "contractName": "Greeter",
  "abi": [
    {
      "inputs": [
        {
          "internalType": "string",
          "name": "_greeting",
          "type": "string"
        }
      ],
      "stateMutability": "nonpayable",
      "type": "constructor"
    },
    {
      "inputs": [],
      "name": "getGreeting",
      "outputs": [
        {
          "internalType": "string",
          "name": "",
          "type": "string"
        }
      ],
      "stateMutability": "view",
      "type": "function"
    },
    {
      "inputs": [
        {
          "internalType": "string",
          "name": "_greeting",
          "type": "string"
        }
      ],
      "name": "setGreeting",
      "outputs": [],
      "stateMutability": "nonpayable",
      "type": "function"
    },
    {
      "inputs": [],
      "name": "getOwner",
      "outputs": [
        {
          "internalType": "address",
          "name": "",
          "type": "address"
        }
      ],
      "stateMutability": "view",
      "type": "function"
    }
  ],
  "bytecode": "0x60806040523480156200001157600080fd5b5060405162000900380380620009008339818101604052810190620000379190620002e5565b80600090805190602001906200004f92919062000098565b5033600160006101000a81548173ffffffffffffffffffffffffffffffffffffffff021916908373ffffffffffffffffffffffffffffffffffffffff160217905550506200039a565b828054620000a69062000365565b90600052602060002090601f016020900481019282620000ca576000855562000116565b82601f10620000e557805160ff191683800117855562000116565b8280016001018555821562000116579182015b8281111562000115578251825591602001919060010190620000f8565b5b50905062000125919062000129565b5090565b5b80821115620001445760008160009055506001016200012a565b5090565b6000604051905090565b600080fd5b600080fd5b600080fd5b600080fd5b6000601f19601f8301169050919050565b7f4e487b7100000000000000000000000000000000000000000000000000000000600052604160045260246000fd5b620001b18262000166565b810181811067ffffffffffffffff82111715620001d357620001d262000177565b5b80604052505050565b6000620001e862000148565b9050620001f68282620001a6565b919050565b600067ffffffffffffffff82111562000219576200021862000177565b5b620002248262000166565b9050602081019050919050565b60005b838110156200025157808201518184015260208101905062000234565b8381111562000261576000848401525b50505050565b60006200027e6200027884620001fb565b620001dc565b9050828152602081018484840111156200029d576200029c62000161565b5b620002aa84828562000231565b509392505050565b600082601f830112620002ca57620002c96200015c565b5b8151620002dc84826020860162000267565b91505092915050565b600060208284031215620002fe57620002fd62000152565b5b600082015167ffffffffffffffff8111156200031f576200031e62000157565b5b6200032d84828501620002b2565b91505092915050565b7f4e487b7100000000000000000000000000000000000000000000000000000000600052602260045260246000fd5b600060028204905060018216806200037e57607f821691505b60208210810362000394576200039362000336565b5b50919050565b61055680620003aa6000396000f3fe608060405234801561001057600080fd5b50600436106100415760003560e01c8063893d20e814610046578063a413686214610064578063fe50cc7214610080575b600080fd5b61004e61009e565b60405161005b9190610258565b60405180910390f35b61007e600480360381019061007991906103cd565b6100c8565b005b6100886100e2565b604051610095919061049e565b60405180910390f35b6000600160009054906101000a900473ffffffffffffffffffffffffffffffffffffffff16905090565b80600090805190602001906100de929190610174565b5050565b6060600080546100f1906104ef565b80601f016020809104026020016040519081016040528092919081815260200182805461011d906104ef565b801561016a5780601f1061013f5761010080835404028352916020019161016a565b820191906000526020600020905b81548152906001019060200180831161014d57829003601f168201915b5050505050905090565b828054610180906104ef565b90600052602060002090601f0160209004810192826101a257600085556101e9565b82601f106101bb57805160ff19168380011785556101e9565b828001600101855582156101e9579182015b828111156101e85782518255916020019190600101906101cd565b5b5090506101f691906101fa565b5090565b5b808211156102135760008160009055506001016101fb565b5090565b600073ffffffffffffffffffffffffffffffffffffffff82169050919050565b600061024282610217565b9050919050565b61025281610237565b82525050565b600060208201905061026d6000830184610249565b92915050565b6000604051905090565b600080fd5b600080fd5b600080fd5b600080fd5b6000601f19601f8301169050919050565b7f4e487b7100000000000000000000000000000000000000000000000000000000600052604160045260246000fd5b6102da82610291565b810181811067ffffffffffffffff821117156102f9576102f86102a2565b5b80604052505050565b600061030c610273565b905061031882826102d1565b919050565b600067ffffffffffffffff821115610338576103376102a2565b5b61034182610291565b9050602081019050919050565b82818337600083830152505050565b600061037061036b8461031d565b610302565b90508281526020810184848401111561038c5761038b61028c565b5b61039784828561034e565b509392505050565b600082601f8301126103b4576103b3610287565b5b81356103c484826020860161035d565b91505092915050565b6000602082840312156103e3576103e261027d565b5b600082013567ffffffffffffffff81111561040157610400610282565b5b61040d8482850161039f565b91505092915050565b600081519050919050565b600082825260208201905092915050565b60005b83811015610450578082015181840152602081019050610435565b8381111561045f576000848401525b50505050565b600061047082610416565b61047a8185610421565b935061048a818560208601610432565b61049381610291565b840191505092915050565b600060208201905081810360008301526104b88184610465565b905092915050565b7f4e487b7100000000000000000000000000000000000000000000000000000000600052602260045260246000fd5b6000600282049050600182168061050757607f821691505b60208210810361051a576105196104c0565b5b5091905056fea2646970667358221220c64314599f94b168a9daa30c2b4d1f8d3ef0d7bf58c3ed6ae9f0c36814fad2f264736f6c634300080e0033",
  "immutableReferences": {},
  "source": "//SPDX-License-Identifier: MIT\n\npragma solidity >=0.8.7; \n\n\ncontract Greeter {\n    string private greeting; \n    address private owner;\n\n    constructor(string memory _greeting) {\n        greeting = _greeting;\n        owner = msg.sender;\n    }\n\n    function getGreeting() external view returns(string memory) {\n        return greeting;\n    }\n\n    function setGreeting(string memory _greeting) external  {\n        greeting = _greeting; \n    }\n\n    function getOwner() external view returns(address) {\n        return owner;\n    }\n}",
  "sourcePath": "/media/zoint/D0F4-36FA/AllFiles/Projeler/zointblackbriar/Smart_Contract_Examples/BuildingEthereumDapps/contracts/Greeter.sol",
  "compiler": {
    "name": "solc",
    "version": "0.8.14+commit.80d49f37.Emscripten.clang"
  },
  "schemaVersion": "3.4.7",
  "updatedAt": "2022-06-08T06:55:00.330Z",
  "devdoc": {
    "kind": "dev",
    "methods": {},
    "version": 1
  },
  "userdoc": {
    "kind": "user",
    "methods": {},
    "version": 1
  }
}