{
  "contractName": "SimpleCoin",
  "abi": [
    {
      "inputs": [
        {
          "internalType": "uint256",
          "name": "_initialSupply",
          "type": "uint256"
        }
      ],
      "stateMutability": "nonpayable",
      "type": "constructor"
    },
    {
      "anonymous": false,
      "inputs": [
        {
          "indexed": true,
          "internalType": "address",
          "name": "from",
          "type": "address"
        },
        {
          "indexed": true,
          "internalType": "address",
          "name": "to",
          "type": "address"
        },
        {
          "indexed": false,
          "internalType": "uint256",
          "name": "value",
          "type": "uint256"
        }
      ],
      "name": "TransferLog",
      "type": "event"
    },
    {
      "inputs": [
        {
          "internalType": "address",
          "name": "",
          "type": "address"
        }
      ],
      "name": "coinBalance",
      "outputs": [
        {
          "internalType": "uint256",
          "name": "",
          "type": "uint256"
        }
      ],
      "stateMutability": "view",
      "type": "function"
    },
    {
      "inputs": [
        {
          "internalType": "address",
          "name": "_toAddress",
          "type": "address"
        },
        {
          "internalType": "uint256",
          "name": "_amount",
          "type": "uint256"
        }
      ],
      "name": "transfer",
      "outputs": [
        {
          "internalType": "bool",
          "name": "",
          "type": "bool"
        }
      ],
      "stateMutability": "nonpayable",
      "type": "function"
    }
  ],
  "bytecode": "0x608060405234801561001057600080fd5b506040516105f33803806105f383398181016040528101906100329190610090565b806000803373ffffffffffffffffffffffffffffffffffffffff1673ffffffffffffffffffffffffffffffffffffffff16815260200190815260200160002081905550506100e3565b60008151905061008a816100cc565b92915050565b6000602082840312156100a6576100a56100c7565b5b60006100b48482850161007b565b91505092915050565b6000819050919050565b600080fd5b6100d5816100bd565b81146100e057600080fd5b50565b610501806100f26000396000f3fe608060405234801561001057600080fd5b50600436106100365760003560e01c8063a9059cbb1461003b578063fabde80c1461006b575b600080fd5b61005560048036038101906100509190610303565b61009b565b6040516100629190610361565b60405180910390f35b610085600480360381019061008091906102d6565b610294565b604051610092919061037c565b60405180910390f35b6000816000803373ffffffffffffffffffffffffffffffffffffffff1673ffffffffffffffffffffffffffffffffffffffff16815260200190815260200160002054116100e757600080fd5b6000808473ffffffffffffffffffffffffffffffffffffffff1673ffffffffffffffffffffffffffffffffffffffff16815260200190815260200160002054826000808673ffffffffffffffffffffffffffffffffffffffff1673ffffffffffffffffffffffffffffffffffffffff168152602001908152602001600020546101709190610397565b101561017b57600080fd5b816000803373ffffffffffffffffffffffffffffffffffffffff1673ffffffffffffffffffffffffffffffffffffffff16815260200190815260200160002060008282546101c991906103ed565b92505081905550816000808573ffffffffffffffffffffffffffffffffffffffff1673ffffffffffffffffffffffffffffffffffffffff168152602001908152602001600020600082825461021e9190610397565b925050819055508273ffffffffffffffffffffffffffffffffffffffff163373ffffffffffffffffffffffffffffffffffffffff167f21425341546d2023146851fb583db9b7c6be5fed0d287293c85a8ede5193c6ea84604051610282919061037c565b60405180910390a36001905092915050565b60006020528060005260406000206000915090505481565b6000813590506102bb8161049d565b92915050565b6000813590506102d0816104b4565b92915050565b6000602082840312156102ec576102eb610498565b5b60006102fa848285016102ac565b91505092915050565b6000806040838503121561031a57610319610498565b5b6000610328858286016102ac565b9250506020610339858286016102c1565b9150509250929050565b61034c81610433565b82525050565b61035b8161045f565b82525050565b60006020820190506103766000830184610343565b92915050565b60006020820190506103916000830184610352565b92915050565b60006103a28261045f565b91506103ad8361045f565b9250827fffffffffffffffffffffffffffffffffffffffffffffffffffffffffffffffff038211156103e2576103e1610469565b5b828201905092915050565b60006103f88261045f565b91506104038361045f565b92508282101561041657610415610469565b5b828203905092915050565b600061042c8261043f565b9050919050565b60008115159050919050565b600073ffffffffffffffffffffffffffffffffffffffff82169050919050565b6000819050919050565b7f4e487b7100000000000000000000000000000000000000000000000000000000600052601160045260246000fd5b600080fd5b6104a681610421565b81146104b157600080fd5b50565b6104bd8161045f565b81146104c857600080fd5b5056fea2646970667358221220b0142e7edcceb0c4dfd0662f79db588598c316162bc27baf4905e65370e82a3164736f6c63430008070033",
  "immutableReferences": {},
  "source": "//SPDX-License-Identifier: MIT\npragma solidity >=0.8.7; \n\ncontract SimpleCoin {\n    mapping(address => uint256 ) public coinBalance; \n\n    //Logging of the SimpleCoin\n    event TransferLog(address indexed from, address indexed to, uint256 value); \n\n    constructor(uint256 _initialSupply) \n    {\n        coinBalance[msg.sender] = _initialSupply; \n    }\n\n    function transfer(address _toAddress, uint256 _amount) public returns(bool){\n        require(coinBalance[msg.sender] > _amount); \n        require(coinBalance[_toAddress] + _amount >= coinBalance[_toAddress]);\n        coinBalance[msg.sender] -= _amount; \n        coinBalance[_toAddress] += _amount; \n        //Logging\n        emit TransferLog(msg.sender, _toAddress, _amount); \n        return true;\n    }\n}",
  "sourcePath": "/Users/orcunoruc/Desktop/Projects/zointblackbriar/Smart_Contract_Development/BuildingEthereumDapps/contracts/SimpleCoin.sol",
  "compiler": {
    "name": "solc",
    "version": "0.8.7+commit.e28d00a7.Emscripten.clang"
  },
  "schemaVersion": "3.4.7",
  "updatedAt": "2022-06-16T12:21:07.666Z",
  "devdoc": {
    "kind": "dev",
    "methods": {},
    "version": 1
  },
  "userdoc": {
    "kind": "user",
    "methods": {},
    "version": 1
  }
}