{
  "contractName": "SimpleCoin",
  "abi": [
    {
      "inputs": [
        {
          "internalType": "uint256",
          "name": "_initialSupply",
          "type": "uint256"
        }
      ],
      "stateMutability": "nonpayable",
      "type": "constructor"
    },
    {
      "anonymous": false,
      "inputs": [
        {
          "indexed": false,
          "internalType": "address",
          "name": "target",
          "type": "address"
        },
        {
          "indexed": false,
          "internalType": "bool",
          "name": "frozen",
          "type": "bool"
        }
      ],
      "name": "FrozenAccountLog",
      "type": "event"
    },
    {
      "anonymous": false,
      "inputs": [
        {
          "indexed": true,
          "internalType": "address",
          "name": "from",
          "type": "address"
        },
        {
          "indexed": true,
          "internalType": "address",
          "name": "to",
          "type": "address"
        },
        {
          "indexed": false,
          "internalType": "uint256",
          "name": "value",
          "type": "uint256"
        }
      ],
      "name": "TransferLog",
      "type": "event"
    },
    {
      "inputs": [
        {
          "internalType": "address",
          "name": "",
          "type": "address"
        },
        {
          "internalType": "address",
          "name": "",
          "type": "address"
        }
      ],
      "name": "allowance",
      "outputs": [
        {
          "internalType": "uint256",
          "name": "",
          "type": "uint256"
        }
      ],
      "stateMutability": "view",
      "type": "function"
    },
    {
      "inputs": [
        {
          "internalType": "address",
          "name": "",
          "type": "address"
        }
      ],
      "name": "coinBalance",
      "outputs": [
        {
          "internalType": "uint256",
          "name": "",
          "type": "uint256"
        }
      ],
      "stateMutability": "view",
      "type": "function"
    },
    {
      "inputs": [
        {
          "internalType": "address",
          "name": "",
          "type": "address"
        }
      ],
      "name": "frozenAccount",
      "outputs": [
        {
          "internalType": "bool",
          "name": "",
          "type": "bool"
        }
      ],
      "stateMutability": "view",
      "type": "function"
    },
    {
      "inputs": [],
      "name": "owner",
      "outputs": [
        {
          "internalType": "address",
          "name": "",
          "type": "address"
        }
      ],
      "stateMutability": "view",
      "type": "function"
    },
    {
      "inputs": [
        {
          "internalType": "address",
          "name": "_recipient",
          "type": "address"
        },
        {
          "internalType": "uint256",
          "name": "_mintedAmount",
          "type": "uint256"
        }
      ],
      "name": "mint",
      "outputs": [],
      "stateMutability": "nonpayable",
      "type": "function"
    },
    {
      "inputs": [
        {
          "internalType": "address",
          "name": "_freezedAccount",
          "type": "address"
        },
        {
          "internalType": "bool",
          "name": "isFreezed",
          "type": "bool"
        }
      ],
      "name": "freeze",
      "outputs": [],
      "stateMutability": "nonpayable",
      "type": "function"
    },
    {
      "inputs": [
        {
          "internalType": "address",
          "name": "_authorizedAccount",
          "type": "address"
        },
        {
          "internalType": "uint256",
          "name": "_allowance",
          "type": "uint256"
        }
      ],
      "name": "authorize",
      "outputs": [
        {
          "internalType": "bool",
          "name": "",
          "type": "bool"
        }
      ],
      "stateMutability": "nonpayable",
      "type": "function"
    },
    {
      "inputs": [
        {
          "internalType": "address",
          "name": "_toAddress",
          "type": "address"
        },
        {
          "internalType": "uint256",
          "name": "_amount",
          "type": "uint256"
        }
      ],
      "name": "transfer",
      "outputs": [
        {
          "internalType": "bool",
          "name": "",
          "type": "bool"
        }
      ],
      "stateMutability": "nonpayable",
      "type": "function"
    },
    {
      "inputs": [
        {
          "internalType": "address",
          "name": "_from",
          "type": "address"
        },
        {
          "internalType": "address",
          "name": "_to",
          "type": "address"
        },
        {
          "internalType": "uint256",
          "name": "_amount",
          "type": "uint256"
        }
      ],
      "name": "transferFrom",
      "outputs": [
        {
          "internalType": "bool",
          "name": "",
          "type": "bool"
        }
      ],
      "stateMutability": "nonpayable",
      "type": "function"
    }
  ],
  "bytecode": "0x608060405234801561001057600080fd5b50604051610d0b380380610d0b833981810160405281019061003291906100d1565b33600360006101000a81548173ffffffffffffffffffffffffffffffffffffffff021916908373ffffffffffffffffffffffffffffffffffffffff160217905550806000803373ffffffffffffffffffffffffffffffffffffffff1673ffffffffffffffffffffffffffffffffffffffff1681526020019081526020016000208190555050610124565b6000815190506100cb8161010d565b92915050565b6000602082840312156100e7576100e6610108565b5b60006100f5848285016100bc565b91505092915050565b6000819050919050565b600080fd5b610116816100fe565b811461012157600080fd5b50565b610bd8806101336000396000f3fe608060405234801561001057600080fd5b50600436106100935760003560e01c8063b414d4b611610066578063b414d4b614610132578063bf120ae514610162578063c1dbd9b21461017e578063dd62ed3e146101ae578063fabde80c146101de57610093565b806323b872dd1461009857806340c10f19146100c85780638da5cb5b146100e4578063a9059cbb14610102575b600080fd5b6100b260048036038101906100ad9190610860565b61020e565b6040516100bf91906109c7565b60405180910390f35b6100e260048036038101906100dd91906108f3565b610217565b005b6100ec610387565b6040516100f99190610983565b60405180910390f35b61011c600480360381019061011791906108f3565b6103ad565b60405161012991906109c7565b60405180910390f35b61014c600480360381019061014791906107f3565b6105a6565b60405161015991906109c7565b60405180910390f35b61017c600480360381019061017791906108b3565b6105c6565b005b610198600480360381019061019391906108f3565b6106ea565b6040516101a591906109c7565b60405180910390f35b6101c860048036038101906101c39190610820565b610777565b6040516101d59190610a02565b60405180910390f35b6101f860048036038101906101f391906107f3565b61079c565b6040516102059190610a02565b60405180910390f35b60009392505050565b600360009054906101000a900473ffffffffffffffffffffffffffffffffffffffff1673ffffffffffffffffffffffffffffffffffffffff163373ffffffffffffffffffffffffffffffffffffffff16146102a7576040517f08c379a000000000000000000000000000000000000000000000000000000000815260040161029e906109e2565b60405180910390fd5b806000808473ffffffffffffffffffffffffffffffffffffffff1673ffffffffffffffffffffffffffffffffffffffff16815260200190815260200160002060008282546102f59190610a2e565b925050819055508173ffffffffffffffffffffffffffffffffffffffff16600360009054906101000a900473ffffffffffffffffffffffffffffffffffffffff1673ffffffffffffffffffffffffffffffffffffffff167f21425341546d2023146851fb583db9b7c6be5fed0d287293c85a8ede5193c6ea8360405161037b9190610a02565b60405180910390a35050565b600360009054906101000a900473ffffffffffffffffffffffffffffffffffffffff1681565b6000816000803373ffffffffffffffffffffffffffffffffffffffff1673ffffffffffffffffffffffffffffffffffffffff16815260200190815260200160002054116103f957600080fd5b6000808473ffffffffffffffffffffffffffffffffffffffff1673ffffffffffffffffffffffffffffffffffffffff16815260200190815260200160002054826000808673ffffffffffffffffffffffffffffffffffffffff1673ffffffffffffffffffffffffffffffffffffffff168152602001908152602001600020546104829190610a2e565b101561048d57600080fd5b816000803373ffffffffffffffffffffffffffffffffffffffff1673ffffffffffffffffffffffffffffffffffffffff16815260200190815260200160002060008282546104db9190610a84565b92505081905550816000808573ffffffffffffffffffffffffffffffffffffffff1673ffffffffffffffffffffffffffffffffffffffff16815260200190815260200160002060008282546105309190610a2e565b925050819055508273ffffffffffffffffffffffffffffffffffffffff163373ffffffffffffffffffffffffffffffffffffffff167f21425341546d2023146851fb583db9b7c6be5fed0d287293c85a8ede5193c6ea846040516105949190610a02565b60405180910390a36001905092915050565b60026020528060005260406000206000915054906101000a900460ff1681565b600360009054906101000a900473ffffffffffffffffffffffffffffffffffffffff1673ffffffffffffffffffffffffffffffffffffffff163373ffffffffffffffffffffffffffffffffffffffff1614610656576040517f08c379a000000000000000000000000000000000000000000000000000000000815260040161064d906109e2565b60405180910390fd5b80600260008473ffffffffffffffffffffffffffffffffffffffff1673ffffffffffffffffffffffffffffffffffffffff16815260200190815260200160002060006101000a81548160ff0219169083151502179055507fb70c110ecf7c61ec0db84ea7e6a841a74c7257d1f5e7cbd0a3b1eb43efc02f0582826040516106de92919061099e565b60405180910390a15050565b600081600160003373ffffffffffffffffffffffffffffffffffffffff1673ffffffffffffffffffffffffffffffffffffffff16815260200190815260200160002060008573ffffffffffffffffffffffffffffffffffffffff1673ffffffffffffffffffffffffffffffffffffffff168152602001908152602001600020819055506001905092915050565b6001602052816000526040600020602052806000526040600020600091509150505481565b60006020528060005260406000206000915090505481565b6000813590506107c381610b5d565b92915050565b6000813590506107d881610b74565b92915050565b6000813590506107ed81610b8b565b92915050565b60006020828403121561080957610808610b2f565b5b6000610817848285016107b4565b91505092915050565b6000806040838503121561083757610836610b2f565b5b6000610845858286016107b4565b9250506020610856858286016107b4565b9150509250929050565b60008060006060848603121561087957610878610b2f565b5b6000610887868287016107b4565b9350506020610898868287016107b4565b92505060406108a9868287016107de565b9150509250925092565b600080604083850312156108ca576108c9610b2f565b5b60006108d8858286016107b4565b92505060206108e9858286016107c9565b9150509250929050565b6000806040838503121561090a57610909610b2f565b5b6000610918858286016107b4565b9250506020610929858286016107de565b9150509250929050565b61093c81610ab8565b82525050565b61094b81610aca565b82525050565b600061095e601883610a1d565b915061096982610b34565b602082019050919050565b61097d81610af6565b82525050565b60006020820190506109986000830184610933565b92915050565b60006040820190506109b36000830185610933565b6109c06020830184610942565b9392505050565b60006020820190506109dc6000830184610942565b92915050565b600060208201905081810360008301526109fb81610951565b9050919050565b6000602082019050610a176000830184610974565b92915050565b600082825260208201905092915050565b6000610a3982610af6565b9150610a4483610af6565b9250827fffffffffffffffffffffffffffffffffffffffffffffffffffffffffffffffff03821115610a7957610a78610b00565b5b828201905092915050565b6000610a8f82610af6565b9150610a9a83610af6565b925082821015610aad57610aac610b00565b5b828203905092915050565b6000610ac382610ad6565b9050919050565b60008115159050919050565b600073ffffffffffffffffffffffffffffffffffffffff82169050919050565b6000819050919050565b7f4e487b7100000000000000000000000000000000000000000000000000000000600052601160045260246000fd5b600080fd5b7f6d73672e73656e6465722068617320612070726f626c656d0000000000000000600082015250565b610b6681610ab8565b8114610b7157600080fd5b50565b610b7d81610aca565b8114610b8857600080fd5b50565b610b9481610af6565b8114610b9f57600080fd5b5056fea2646970667358221220103c350d84a616c11b319206bc6b4a013d3ff642d65837eacb103d609da26f8164736f6c63430008070033",
  "immutableReferences": {},
  "source": "//SPDX-License-Identifier: MIT\npragma solidity >=0.8.7; \n\ncontract SimpleCoin {\n    mapping(address => uint256 ) public coinBalance; \n    mapping(address => mapping(address => uint)) public allowance; \n    mapping(address => bool) public frozenAccount;\n    address public owner; \n\n    //Logging of the SimpleCoin\n    event TransferLog(address indexed from, address indexed to, uint256 value); \n    event FrozenAccountLog(address target, bool frozen); \n\n    constructor(uint256 _initialSupply) \n    {   \n        owner = msg.sender;\n        coinBalance[msg.sender] = _initialSupply; \n    }\n\n    modifier onlyOwner {\n        require(msg.sender == owner, \"msg.sender has a problem\");\n        _;\n    }\n\n    function mint(address _recipient, uint _mintedAmount)  public onlyOwner{\n        coinBalance[_recipient] += _mintedAmount; \n        emit TransferLog(owner, _recipient, _mintedAmount); \n    }\n\n    function freeze(address _freezedAccount, bool isFreezed) public onlyOwner {\n        frozenAccount[_freezedAccount] = isFreezed; \n        emit FrozenAccountLog(_freezedAccount, isFreezed);\n    }\n\n    function authorize(address _authorizedAccount, uint _allowance) public returns(bool) {\n        allowance[msg.sender][_authorizedAccount] = _allowance;\n        return true;\n    }\n\n    function transfer(address _toAddress, uint256 _amount) public returns(bool){\n        require(coinBalance[msg.sender] > _amount); \n        require(coinBalance[_toAddress] + _amount >= coinBalance[_toAddress]);\n        coinBalance[msg.sender] -= _amount; \n        coinBalance[_toAddress] += _amount; \n        //Logging\n        emit TransferLog(msg.sender, _toAddress, _amount); \n        return true;\n    }\n\n    function transferFrom(address _from, address _to, uint _amount) public returns (bool) {\n        \n    }\n}",
  "sourcePath": "/media/zoint/D0F4-36FA/AllFiles/Projeler/zointblackbriar/Smart_Contract_Examples/BuildingEthereumDapps/contracts/SimpleCoin.sol",
  "compiler": {
    "name": "solc",
    "version": "0.8.7+commit.e28d00a7.Emscripten.clang"
  },
  "schemaVersion": "3.4.7",
  "updatedAt": "2022-07-25T22:17:52.583Z",
  "devdoc": {
    "kind": "dev",
    "methods": {},
    "version": 1
  },
  "userdoc": {
    "kind": "user",
    "methods": {},
    "version": 1
  }
}