{
  "contractName": "SimpleCoin",
  "abi": [
    {
      "inputs": [
        {
          "internalType": "uint256",
          "name": "_initialSupply",
          "type": "uint256"
        }
      ],
      "stateMutability": "nonpayable",
      "type": "constructor"
    },
    {
      "anonymous": false,
      "inputs": [
        {
          "indexed": false,
          "internalType": "address",
          "name": "target",
          "type": "address"
        },
        {
          "indexed": false,
          "internalType": "bool",
          "name": "frozen",
          "type": "bool"
        }
      ],
      "name": "FrozenAccountLog",
      "type": "event"
    },
    {
      "anonymous": false,
      "inputs": [
        {
          "indexed": true,
          "internalType": "address",
          "name": "from",
          "type": "address"
        },
        {
          "indexed": true,
          "internalType": "address",
          "name": "to",
          "type": "address"
        },
        {
          "indexed": false,
          "internalType": "uint256",
          "name": "value",
          "type": "uint256"
        }
      ],
      "name": "TransferLog",
      "type": "event"
    },
    {
      "inputs": [
        {
          "internalType": "address",
          "name": "",
          "type": "address"
        },
        {
          "internalType": "address",
          "name": "",
          "type": "address"
        }
      ],
      "name": "allowance",
      "outputs": [
        {
          "internalType": "uint256",
          "name": "",
          "type": "uint256"
        }
      ],
      "stateMutability": "view",
      "type": "function"
    },
    {
      "inputs": [
        {
          "internalType": "address",
          "name": "",
          "type": "address"
        }
      ],
      "name": "coinBalance",
      "outputs": [
        {
          "internalType": "uint256",
          "name": "",
          "type": "uint256"
        }
      ],
      "stateMutability": "view",
      "type": "function"
    },
    {
      "inputs": [
        {
          "internalType": "address",
          "name": "",
          "type": "address"
        }
      ],
      "name": "frozenAccount",
      "outputs": [
        {
          "internalType": "bool",
          "name": "",
          "type": "bool"
        }
      ],
      "stateMutability": "view",
      "type": "function"
    },
    {
      "inputs": [],
      "name": "owner",
      "outputs": [
        {
          "internalType": "address",
          "name": "",
          "type": "address"
        }
      ],
      "stateMutability": "view",
      "type": "function"
    },
    {
      "inputs": [
        {
          "internalType": "address",
          "name": "_recipient",
          "type": "address"
        },
        {
          "internalType": "uint256",
          "name": "_mintedAmount",
          "type": "uint256"
        }
      ],
      "name": "mint",
      "outputs": [],
      "stateMutability": "nonpayable",
      "type": "function"
    },
    {
      "inputs": [
        {
          "internalType": "address",
          "name": "_freezedAccount",
          "type": "address"
        },
        {
          "internalType": "bool",
          "name": "isFreezed",
          "type": "bool"
        }
      ],
      "name": "freeze",
      "outputs": [],
      "stateMutability": "nonpayable",
      "type": "function"
    },
    {
      "inputs": [
        {
          "internalType": "address",
          "name": "_authorizedAccount",
          "type": "address"
        },
        {
          "internalType": "uint256",
          "name": "_allowance",
          "type": "uint256"
        }
      ],
      "name": "authorize",
      "outputs": [
        {
          "internalType": "bool",
          "name": "",
          "type": "bool"
        }
      ],
      "stateMutability": "nonpayable",
      "type": "function"
    },
    {
      "inputs": [
        {
          "internalType": "address",
          "name": "_toAddress",
          "type": "address"
        },
        {
          "internalType": "uint256",
          "name": "_amount",
          "type": "uint256"
        }
      ],
      "name": "transfer",
      "outputs": [
        {
          "internalType": "bool",
          "name": "",
          "type": "bool"
        }
      ],
      "stateMutability": "nonpayable",
      "type": "function"
    },
    {
      "inputs": [
        {
          "internalType": "address",
          "name": "_from",
          "type": "address"
        },
        {
          "internalType": "address",
          "name": "_to",
          "type": "address"
        },
        {
          "internalType": "uint256",
          "name": "_amount",
          "type": "uint256"
        }
      ],
      "name": "transferFrom",
      "outputs": [
        {
          "internalType": "bool",
          "name": "",
          "type": "bool"
        }
      ],
      "stateMutability": "nonpayable",
      "type": "function"
    }
  ],
  "bytecode": "0x608060405234801561001057600080fd5b50604051611050380380611050833981810160405281019061003291906100d1565b33600360006101000a81548173ffffffffffffffffffffffffffffffffffffffff021916908373ffffffffffffffffffffffffffffffffffffffff160217905550806000803373ffffffffffffffffffffffffffffffffffffffff1673ffffffffffffffffffffffffffffffffffffffff1681526020019081526020016000208190555050610124565b6000815190506100cb8161010d565b92915050565b6000602082840312156100e7576100e6610108565b5b60006100f5848285016100bc565b91505092915050565b6000819050919050565b600080fd5b610116816100fe565b811461012157600080fd5b50565b610f1d806101336000396000f3fe608060405234801561001057600080fd5b50600436106100935760003560e01c8063b414d4b611610066578063b414d4b614610132578063bf120ae514610162578063c1dbd9b21461017e578063dd62ed3e146101ae578063fabde80c146101de57610093565b806323b872dd1461009857806340c10f19146100c85780638da5cb5b146100e4578063a9059cbb14610102575b600080fd5b6100b260048036038101906100ad9190610ba5565b61020e565b6040516100bf9190610d0c565b60405180910390f35b6100e260048036038101906100dd9190610c38565b61055c565b005b6100ec6106cc565b6040516100f99190610cc8565b60405180910390f35b61011c60048036038101906101179190610c38565b6106f2565b6040516101299190610d0c565b60405180910390f35b61014c60048036038101906101479190610b38565b6108eb565b6040516101599190610d0c565b60405180910390f35b61017c60048036038101906101779190610bf8565b61090b565b005b61019860048036038101906101939190610c38565b610a2f565b6040516101a59190610d0c565b60405180910390f35b6101c860048036038101906101c39190610b65565b610abc565b6040516101d59190610d47565b60405180910390f35b6101f860048036038101906101f39190610b38565b610ae1565b6040516102059190610d47565b60405180910390f35b60008073ffffffffffffffffffffffffffffffffffffffff168373ffffffffffffffffffffffffffffffffffffffff16141561024957600080fd5b816000808673ffffffffffffffffffffffffffffffffffffffff1673ffffffffffffffffffffffffffffffffffffffff168152602001908152602001600020541161029357600080fd5b6000808473ffffffffffffffffffffffffffffffffffffffff1673ffffffffffffffffffffffffffffffffffffffff16815260200190815260200160002054826000808673ffffffffffffffffffffffffffffffffffffffff1673ffffffffffffffffffffffffffffffffffffffff1681526020019081526020016000205461031c9190610d73565b1161032657600080fd5b600160008573ffffffffffffffffffffffffffffffffffffffff1673ffffffffffffffffffffffffffffffffffffffff16815260200190815260200160002060003373ffffffffffffffffffffffffffffffffffffffff1673ffffffffffffffffffffffffffffffffffffffff168152602001908152602001600020548211156103af57600080fd5b816000808673ffffffffffffffffffffffffffffffffffffffff1673ffffffffffffffffffffffffffffffffffffffff16815260200190815260200160002060008282546103fd9190610dc9565b92505081905550816000808573ffffffffffffffffffffffffffffffffffffffff1673ffffffffffffffffffffffffffffffffffffffff16815260200190815260200160002060008282546104529190610d73565b9250508190555081600160008673ffffffffffffffffffffffffffffffffffffffff1673ffffffffffffffffffffffffffffffffffffffff16815260200190815260200160002060003373ffffffffffffffffffffffffffffffffffffffff1673ffffffffffffffffffffffffffffffffffffffff16815260200190815260200160002060008282546104e59190610dc9565b925050819055508273ffffffffffffffffffffffffffffffffffffffff168473ffffffffffffffffffffffffffffffffffffffff167f21425341546d2023146851fb583db9b7c6be5fed0d287293c85a8ede5193c6ea846040516105499190610d47565b60405180910390a3600190509392505050565b600360009054906101000a900473ffffffffffffffffffffffffffffffffffffffff1673ffffffffffffffffffffffffffffffffffffffff163373ffffffffffffffffffffffffffffffffffffffff16146105ec576040517f08c379a00000000000000000000000000000000000000000000000000000000081526004016105e390610d27565b60405180910390fd5b806000808473ffffffffffffffffffffffffffffffffffffffff1673ffffffffffffffffffffffffffffffffffffffff168152602001908152602001600020600082825461063a9190610d73565b925050819055508173ffffffffffffffffffffffffffffffffffffffff16600360009054906101000a900473ffffffffffffffffffffffffffffffffffffffff1673ffffffffffffffffffffffffffffffffffffffff167f21425341546d2023146851fb583db9b7c6be5fed0d287293c85a8ede5193c6ea836040516106c09190610d47565b60405180910390a35050565b600360009054906101000a900473ffffffffffffffffffffffffffffffffffffffff1681565b6000816000803373ffffffffffffffffffffffffffffffffffffffff1673ffffffffffffffffffffffffffffffffffffffff168152602001908152602001600020541161073e57600080fd5b6000808473ffffffffffffffffffffffffffffffffffffffff1673ffffffffffffffffffffffffffffffffffffffff16815260200190815260200160002054826000808673ffffffffffffffffffffffffffffffffffffffff1673ffffffffffffffffffffffffffffffffffffffff168152602001908152602001600020546107c79190610d73565b10156107d257600080fd5b816000803373ffffffffffffffffffffffffffffffffffffffff1673ffffffffffffffffffffffffffffffffffffffff16815260200190815260200160002060008282546108209190610dc9565b92505081905550816000808573ffffffffffffffffffffffffffffffffffffffff1673ffffffffffffffffffffffffffffffffffffffff16815260200190815260200160002060008282546108759190610d73565b925050819055508273ffffffffffffffffffffffffffffffffffffffff163373ffffffffffffffffffffffffffffffffffffffff167f21425341546d2023146851fb583db9b7c6be5fed0d287293c85a8ede5193c6ea846040516108d99190610d47565b60405180910390a36001905092915050565b60026020528060005260406000206000915054906101000a900460ff1681565b600360009054906101000a900473ffffffffffffffffffffffffffffffffffffffff1673ffffffffffffffffffffffffffffffffffffffff163373ffffffffffffffffffffffffffffffffffffffff161461099b576040517f08c379a000000000000000000000000000000000000000000000000000000000815260040161099290610d27565b60405180910390fd5b80600260008473ffffffffffffffffffffffffffffffffffffffff1673ffffffffffffffffffffffffffffffffffffffff16815260200190815260200160002060006101000a81548160ff0219169083151502179055507fb70c110ecf7c61ec0db84ea7e6a841a74c7257d1f5e7cbd0a3b1eb43efc02f058282604051610a23929190610ce3565b60405180910390a15050565b600081600160003373ffffffffffffffffffffffffffffffffffffffff1673ffffffffffffffffffffffffffffffffffffffff16815260200190815260200160002060008573ffffffffffffffffffffffffffffffffffffffff1673ffffffffffffffffffffffffffffffffffffffff168152602001908152602001600020819055506001905092915050565b6001602052816000526040600020602052806000526040600020600091509150505481565b60006020528060005260406000206000915090505481565b600081359050610b0881610ea2565b92915050565b600081359050610b1d81610eb9565b92915050565b600081359050610b3281610ed0565b92915050565b600060208284031215610b4e57610b4d610e74565b5b6000610b5c84828501610af9565b91505092915050565b60008060408385031215610b7c57610b7b610e74565b5b6000610b8a85828601610af9565b9250506020610b9b85828601610af9565b9150509250929050565b600080600060608486031215610bbe57610bbd610e74565b5b6000610bcc86828701610af9565b9350506020610bdd86828701610af9565b9250506040610bee86828701610b23565b9150509250925092565b60008060408385031215610c0f57610c0e610e74565b5b6000610c1d85828601610af9565b9250506020610c2e85828601610b0e565b9150509250929050565b60008060408385031215610c4f57610c4e610e74565b5b6000610c5d85828601610af9565b9250506020610c6e85828601610b23565b9150509250929050565b610c8181610dfd565b82525050565b610c9081610e0f565b82525050565b6000610ca3601883610d62565b9150610cae82610e79565b602082019050919050565b610cc281610e3b565b82525050565b6000602082019050610cdd6000830184610c78565b92915050565b6000604082019050610cf86000830185610c78565b610d056020830184610c87565b9392505050565b6000602082019050610d216000830184610c87565b92915050565b60006020820190508181036000830152610d4081610c96565b9050919050565b6000602082019050610d5c6000830184610cb9565b92915050565b600082825260208201905092915050565b6000610d7e82610e3b565b9150610d8983610e3b565b9250827fffffffffffffffffffffffffffffffffffffffffffffffffffffffffffffffff03821115610dbe57610dbd610e45565b5b828201905092915050565b6000610dd482610e3b565b9150610ddf83610e3b565b925082821015610df257610df1610e45565b5b828203905092915050565b6000610e0882610e1b565b9050919050565b60008115159050919050565b600073ffffffffffffffffffffffffffffffffffffffff82169050919050565b6000819050919050565b7f4e487b7100000000000000000000000000000000000000000000000000000000600052601160045260246000fd5b600080fd5b7f6d73672e73656e6465722068617320612070726f626c656d0000000000000000600082015250565b610eab81610dfd565b8114610eb657600080fd5b50565b610ec281610e0f565b8114610ecd57600080fd5b50565b610ed981610e3b565b8114610ee457600080fd5b5056fea26469706673582212203bcd8c5dac6d7af51fad0b88ae2f590741b3df45f602dadaa9db2105ac342f6364736f6c63430008070033",
  "immutableReferences": {},
  "source": "//SPDX-License-Identifier: MIT\npragma solidity >=0.8.7; \n\ncontract SimpleCoin {\n    mapping(address => uint256 ) public coinBalance; \n    mapping(address => mapping(address => uint)) public allowance; \n    mapping(address => bool) public frozenAccount;\n    address public owner; \n\n    //Logging of the SimpleCoin\n    event TransferLog(address indexed from, address indexed to, uint256 value); \n    event FrozenAccountLog(address target, bool frozen); \n\n    constructor(uint256 _initialSupply) \n    {   \n        owner = msg.sender;\n        coinBalance[msg.sender] = _initialSupply; \n    }\n\n    modifier onlyOwner {\n        require(msg.sender == owner, \"msg.sender has a problem\");\n        _;\n    }\n\n    function mint(address _recipient, uint _mintedAmount)  public onlyOwner{\n        coinBalance[_recipient] += _mintedAmount; \n        emit TransferLog(owner, _recipient, _mintedAmount); \n    }\n\n    function freeze(address _freezedAccount, bool isFreezed) public onlyOwner {\n        frozenAccount[_freezedAccount] = isFreezed; \n        emit FrozenAccountLog(_freezedAccount, isFreezed);\n    }\n\n    function authorize(address _authorizedAccount, uint _allowance) public returns(bool) {\n        allowance[msg.sender][_authorizedAccount] = _allowance;\n        return true;\n    }\n\n    function transfer(address _toAddress, uint256 _amount) public returns(bool){\n        require(coinBalance[msg.sender] > _amount); \n        require(coinBalance[_toAddress] + _amount >= coinBalance[_toAddress]);\n        coinBalance[msg.sender] -= _amount; \n        coinBalance[_toAddress] += _amount; \n        //Logging\n        emit TransferLog(msg.sender, _toAddress, _amount); \n        return true;\n    }\n\n    function transferFrom(address _from, address _to, uint _amount) public returns (bool) {\n        require(_to != address(0x0)); \n        require(coinBalance[_from] > _amount);\n        require(coinBalance[_to] + _amount > coinBalance[_to]); \n        require(_amount <= allowance[_from][msg.sender]);\n        coinBalance[_from] -= _amount; \n        coinBalance[_to] += _amount; \n        allowance[_from][msg.sender] -= _amount;\n        emit TransferLog(_from, _to, _amount); \n        return true;\n    }\n}",
  "sourcePath": "/media/zoint/D0F4-36FA/AllFiles/Projeler/zointblackbriar/Smart_Contract_Examples/BuildingEthereumDapps/contracts/SimpleCoin.sol",
  "compiler": {
    "name": "solc",
    "version": "0.8.7+commit.e28d00a7.Emscripten.clang"
  },
  "schemaVersion": "3.4.7",
  "updatedAt": "2022-07-27T12:45:32.779Z",
  "devdoc": {
    "kind": "dev",
    "methods": {},
    "version": 1
  },
  "userdoc": {
    "kind": "user",
    "methods": {},
    "version": 1
  }
}