{
  "_format": "hh-sol-artifact-1",
  "contractName": "CellConfigurator",
  "sourceName": "contracts/CellConfigurator.sol",
  "abi": [
    {
      "inputs": [
        {
          "internalType": "uint256",
          "name": "sampleAsset",
          "type": "uint256"
        }
      ],
      "stateMutability": "nonpayable",
      "type": "constructor"
    },
    {
      "inputs": [],
      "name": "companyId",
      "outputs": [
        {
          "internalType": "string",
          "name": "",
          "type": "string"
        }
      ],
      "stateMutability": "view",
      "type": "function"
    },
    {
      "inputs": [],
      "name": "companyName",
      "outputs": [
        {
          "internalType": "string",
          "name": "",
          "type": "string"
        }
      ],
      "stateMutability": "view",
      "type": "function"
    },
    {
      "inputs": [],
      "name": "getCompanyId",
      "outputs": [
        {
          "internalType": "string",
          "name": "",
          "type": "string"
        }
      ],
      "stateMutability": "view",
      "type": "function"
    },
    {
      "inputs": [],
      "name": "getCompanyName",
      "outputs": [
        {
          "internalType": "string",
          "name": "",
          "type": "string"
        }
      ],
      "stateMutability": "view",
      "type": "function"
    },
    {
      "inputs": [],
      "name": "isProductionEnvLeased",
      "outputs": [
        {
          "internalType": "bool",
          "name": "",
          "type": "bool"
        }
      ],
      "stateMutability": "view",
      "type": "function"
    },
    {
      "inputs": [
        {
          "internalType": "string",
          "name": "_companyId",
          "type": "string"
        }
      ],
      "name": "setCompanyId",
      "outputs": [],
      "stateMutability": "nonpayable",
      "type": "function"
    },
    {
      "inputs": [
        {
          "internalType": "string",
          "name": "_companyName",
          "type": "string"
        }
      ],
      "name": "setCompanyName",
      "outputs": [],
      "stateMutability": "nonpayable",
      "type": "function"
    }
  ],
  "bytecode": "0x608060405234801561001057600080fd5b5060405161054438038061054483398101604081905261002f9161005f565b60028054610100600160a81b03191633610100810291909117909155600090815260036020526040902055610078565b60006020828403121561007157600080fd5b5051919050565b6104bd806100876000396000f3fe608060405234801561001057600080fd5b506004361061007d5760003560e01c80638c439f6a1161005b5780638c439f6a146100c15780639f14d7c2146100d6578063eb3313f0146100de578063f5ec2eed146100f157600080fd5b8063285b10b31461008257806343cfbd65146100a45780637bc3a733146100b9575b600080fd5b60025461008f9060ff1681565b60405190151581526020015b60405180910390f35b6100ac6100f9565b60405161009b91906103e1565b6100ac61018b565b6100d46100cf366004610330565b610219565b005b6100ac61024c565b6100d46100ec366004610330565b61025b565b6100ac61028a565b60606000805461010890610436565b80601f016020809104026020016040519081016040528092919081815260200182805461013490610436565b80156101815780601f1061015657610100808354040283529160200191610181565b820191906000526020600020905b81548152906001019060200180831161016457829003601f168201915b5050505050905090565b6001805461019890610436565b80601f01602080910402602001604051908101604052809291908181526020018280546101c490610436565b80156102115780601f106101e657610100808354040283529160200191610211565b820191906000526020600020905b8154815290600101906020018083116101f457829003601f168201915b505050505081565b60025461010090046001600160a01b0316331461023557600080fd5b8051610248906001906020840190610297565b5050565b60606001805461010890610436565b60025461010090046001600160a01b0316331461027757600080fd5b8051610248906000906020840190610297565b6000805461019890610436565b8280546102a390610436565b90600052602060002090601f0160209004810192826102c5576000855561030b565b82601f106102de57805160ff191683800117855561030b565b8280016001018555821561030b579182015b8281111561030b5782518255916020019190600101906102f0565b5061031792915061031b565b5090565b5b80821115610317576000815560010161031c565b60006020828403121561034257600080fd5b813567ffffffffffffffff8082111561035a57600080fd5b818401915084601f83011261036e57600080fd5b81358181111561038057610380610471565b604051601f8201601f19908116603f011681019083821181831017156103a8576103a8610471565b816040528281528760208487010111156103c157600080fd5b826020860160208301376000928101602001929092525095945050505050565b600060208083528351808285015260005b8181101561040e578581018301518582016040015282016103f2565b81811115610420576000604083870101525b50601f01601f1916929092016040019392505050565b600181811c9082168061044a57607f821691505b6020821081141561046b57634e487b7160e01b600052602260045260246000fd5b50919050565b634e487b7160e01b600052604160045260246000fdfea264697066735822122017a163d8bdd97824bcfffc5c220e946f4b8827d8a7dd4f5fe671f456b493349b64736f6c63430008070033",
  "linkReferences": {},
  "deployedLinkReferences": {}
}