{
  "contractName": "MultiAgents",
  "abi": [
    {
      "inputs": [
        {
          "internalType": "string",
          "name": "message",
          "type": "string"
        }
      ],
      "payable": false,
      "stateMutability": "nonpayable",
      "type": "constructor"
    },
    {
      "constant": true,
      "inputs": [],
      "name": "RequestMessage",
      "outputs": [
        {
          "internalType": "string",
          "name": "",
          "type": "string"
        }
      ],
      "payable": false,
      "stateMutability": "view",
      "type": "function"
    },
    {
      "constant": true,
      "inputs": [],
      "name": "Requestor",
      "outputs": [
        {
          "internalType": "address",
          "name": "",
          "type": "address"
        }
      ],
      "payable": false,
      "stateMutability": "view",
      "type": "function"
    },
    {
      "constant": true,
      "inputs": [],
      "name": "Responder",
      "outputs": [
        {
          "internalType": "address",
          "name": "",
          "type": "address"
        }
      ],
      "payable": false,
      "stateMutability": "view",
      "type": "function"
    },
    {
      "constant": true,
      "inputs": [],
      "name": "ResponseMessage",
      "outputs": [
        {
          "internalType": "string",
          "name": "",
          "type": "string"
        }
      ],
      "payable": false,
      "stateMutability": "view",
      "type": "function"
    },
    {
      "constant": true,
      "inputs": [],
      "name": "State",
      "outputs": [
        {
          "internalType": "enum MultiAgents.StateType",
          "name": "",
          "type": "uint8"
        }
      ],
      "payable": false,
      "stateMutability": "view",
      "type": "function"
    },
    {
      "constant": false,
      "inputs": [
        {
          "internalType": "string",
          "name": "requestMessage",
          "type": "string"
        }
      ],
      "name": "SendRequest",
      "outputs": [],
      "payable": false,
      "stateMutability": "nonpayable",
      "type": "function"
    },
    {
      "constant": false,
      "inputs": [
        {
          "internalType": "string",
          "name": "responseMessage",
          "type": "string"
        }
      ],
      "name": "SendResponse",
      "outputs": [],
      "payable": false,
      "stateMutability": "nonpayable",
      "type": "function"
    }
  ],
  "bytecode": "0x608060405234801561001057600080fd5b5060405161096a38038061096a8339818101604052602081101561003357600080fd5b810190808051604051939291908464010000000082111561005357600080fd5b8382019150602082018581111561006957600080fd5b825186600182028301116401000000008211171561008657600080fd5b8083526020830192505050908051906020019080838360005b838110156100ba57808201518184015260208101905061009f565b50505050905090810190601f1680156100e75780820380516001836020036101000a031916815260200191505b5060405250505033600060016101000a81548173ffffffffffffffffffffffffffffffffffffffff021916908373ffffffffffffffffffffffffffffffffffffffff160217905550806002908051906020019061014592919061016f565b5060008060006101000a81548160ff0219169083600181111561016457fe5b021790555050610214565b828054600181600116156101000203166002900490600052602060002090601f016020900481019282601f106101b057805160ff19168380011785556101de565b828001600101855582156101de579182015b828111156101dd5782518255916020019190600101906101c2565b5b5090506101eb91906101ef565b5090565b61021191905b8082111561020d5760008160009055506001016101f5565b5090565b90565b610747806102236000396000f3fe608060405234801561001057600080fd5b506004361061007d5760003560e01c8063d181ada11161005b578063d181ada11461027b578063e750e2da146102c5578063f1b6dccd14610348578063fd05116c146103745761007d565b80635ab28ecb14610082578063829c2d6d14610105578063a7a1ba15146101c0575b600080fd5b61008a6103be565b6040518080602001828103825283818151815260200191508051906020019080838360005b838110156100ca5780820151818401526020810190506100af565b50505050905090810190601f1680156100f75780820380516001836020036101000a031916815260200191505b509250505060405180910390f35b6101be6004803603602081101561011b57600080fd5b810190808035906020019064010000000081111561013857600080fd5b82018360208201111561014a57600080fd5b8035906020019184600183028401116401000000008311171561016c57600080fd5b91908080601f016020809104026020016040519081016040528093929190818152602001838380828437600081840152601f19601f82011690508083019250505050505050919291929050505061045c565b005b610279600480360360208110156101d657600080fd5b81019080803590602001906401000000008111156101f357600080fd5b82018360208201111561020557600080fd5b8035906020019184600183028401116401000000008311171561022757600080fd5b91908080601f016020809104026020016040519081016040528093929190818152602001838380828437600081840152601f19601f8201169050808301925050505050505091929192905050506104da565b005b610283610571565b604051808273ffffffffffffffffffffffffffffffffffffffff1673ffffffffffffffffffffffffffffffffffffffff16815260200191505060405180910390f35b6102cd610597565b6040518080602001828103825283818151815260200191508051906020019080838360005b8381101561030d5780820151818401526020810190506102f2565b50505050905090810190601f16801561033a5780820380516001836020036101000a031916815260200191505b509250505060405180910390f35b610350610635565b6040518082600181111561036057fe5b60ff16815260200191505060405180910390f35b61037c610647565b604051808273ffffffffffffffffffffffffffffffffffffffff1673ffffffffffffffffffffffffffffffffffffffff16815260200191505060405180910390f35b60038054600181600116156101000203166002900480601f0160208091040260200160405190810160405280929190818152602001828054600181600116156101000203166002900480156104545780601f1061042957610100808354040283529160200191610454565b820191906000526020600020905b81548152906001019060200180831161043757829003601f168201915b505050505081565b33600160006101000a81548173ffffffffffffffffffffffffffffffffffffffff021916908373ffffffffffffffffffffffffffffffffffffffff16021790555080600390805190602001906104b392919061066d565b5060016000806101000a81548160ff021916908360018111156104d257fe5b021790555050565b3373ffffffffffffffffffffffffffffffffffffffff16600060019054906101000a900473ffffffffffffffffffffffffffffffffffffffff1673ffffffffffffffffffffffffffffffffffffffff161461053457600080fd5b806002908051906020019061054a92919061066d565b5060008060006101000a81548160ff0219169083600181111561056957fe5b021790555050565b600160009054906101000a900473ffffffffffffffffffffffffffffffffffffffff1681565b60028054600181600116156101000203166002900480601f01602080910402602001604051908101604052809291908181526020018280546001816001161561010002031660029004801561062d5780601f106106025761010080835404028352916020019161062d565b820191906000526020600020905b81548152906001019060200180831161061057829003601f168201915b505050505081565b6000809054906101000a900460ff1681565b600060019054906101000a900473ffffffffffffffffffffffffffffffffffffffff1681565b828054600181600116156101000203166002900490600052602060002090601f016020900481019282601f106106ae57805160ff19168380011785556106dc565b828001600101855582156106dc579182015b828111156106db5782518255916020019190600101906106c0565b5b5090506106e991906106ed565b5090565b61070f91905b8082111561070b5760008160009055506001016106f3565b5090565b9056fea265627a7a72315820719c3669d2a340093011f7a2a7aa47f95c89f210433923764725bfdd608f924764736f6c634300050c0032",
  "source": "pragma solidity >=0.4.21 <0.6.0;\n\n//how to add first class relationship into this smart contract\n//think about it\ncontract MultiAgents {\n\n  // This application expresses a workflow between a person sending a request and a person responding to the\n  // request and a person responding to the request.\n\n  // Application Roles\n  // Name        Description\n  // Requestor   The party that initiates the \"Hello Ethereum!\" request\n  // Responder   The party that responds to the Requestor\n\n  // States\n  // Name        Description\n  // Request     The state that occurs when a request has been made\n  // Respond     The state that occurs after a response has been made to the request.\n\n  //Set of States\n  enum StateType { Request, Respond}\n\n  //List of properties\n  StateType public State;\n  address public Requestor;\n  address public Responder;\n\n  //Messages\n  string public RequestMessage;\n  string public ResponseMessage;\n\n  // constructor function\n  constructor(string memory message) public\n  {\n      Requestor = msg.sender; //message sender\n      RequestMessage = message;\n      State = StateType.Request;\n  }\n\n  // call this function to send a request\n  function SendRequest(string memory requestMessage) public\n  {\n      if(Requestor != msg.sender)\n      {\n          revert();\n      }\n\n      RequestMessage = requestMessage;\n      State = StateType.Request;\n  }\n\n  // call this function to send a response\n  function SendResponse(string memory responseMessage) public\n  {\n      Responder = msg.sender;\n\n      // call ContractUpdated() to record this action\n      ResponseMessage = responseMessage;\n      State = StateType.Respond; // State Type\n  }\n\n}\n\n",
  "sourcePath": "/Users/orcunoruc/Desktop/Projects/Smart_Contract_Development/initial_contract/contracts/MultiAgents.sol",
  "compiler": {
    "name": "solc",
    "version": "0.5.12+commit.7709ece9.Emscripten.clang"
  },
  "schemaVersion": "3.0.19",
  "updatedAt": "2020-01-20T16:34:23.657Z",
  "devdoc": {
    "methods": {}
  },
  "userdoc": {
    "methods": {}
  }
}