{
  "contractName": "Roles",
  "abi": [
    {
      "constant": false,
      "inputs": [
        {
          "internalType": "uint256",
          "name": "petId",
          "type": "uint256"
        }
      ],
      "name": "adopt",
      "outputs": [
        {
          "internalType": "uint256",
          "name": "",
          "type": "uint256"
        }
      ],
      "payable": false,
      "stateMutability": "nonpayable",
      "type": "function"
    },
    {
      "constant": true,
      "inputs": [],
      "name": "getAdopters",
      "outputs": [
        {
          "internalType": "address[16]",
          "name": "",
          "type": "address[16]"
        }
      ],
      "payable": false,
      "stateMutability": "view",
      "type": "function"
    }
  ],
  "bytecode": "0x608060405234801561001057600080fd5b5061020d806100206000396000f3fe608060405234801561001057600080fd5b50600436106100365760003560e01c80633de4eb171461003b5780638588b2c514610081575b600080fd5b6100436100c3565b6040518082601060200280838360005b8381101561006e578082015181840152602081019050610053565b5050505090500191505060405180910390f35b6100ad6004803603602081101561009757600080fd5b8101908080359060200190929190505050610144565b6040518082815260200191505060405180910390f35b6100cb6101b5565b600060108060200260405190810160405280929190826010801561013a576020028201915b8160009054906101000a900473ffffffffffffffffffffffffffffffffffffffff1673ffffffffffffffffffffffffffffffffffffffff16815260200190600101908083116100f0575b5050505050905090565b60008082101580156101575750600f8211155b61016057600080fd5b336000836010811061016e57fe5b0160006101000a81548173ffffffffffffffffffffffffffffffffffffffff021916908373ffffffffffffffffffffffffffffffffffffffff160217905550819050919050565b60405180610200016040528060109060208202803883398082019150509050509056fea265627a7a723158208a542f53b1935c4e49e5ff44e09ad43c9310275bccd72fd512d04c229b51d28f64736f6c634300050c0032",
  "source": "pragma solidity >=0.4.21 <0.6.0;\n\ncontract Roles {\n    //hello Roles\n    //sample Role Oriented Pet Shop\n\n    //Adoptint a pet -- Adopt role\n\n    address[16] adopters;\n\n    function adopt(uint petId) public returns (uint) {\n        require(petId >= 0 && petId <= 15);\n\n        adopters[petId] = msg.sender;\n\n        return petId; //return the information\n    }\n\n    //Retrieve adopt role\n    function getAdopters() public view returns (address[16] memory) {\n        return adopters;\n    }\n}\n\n",
  "sourcePath": "/Users/orcunoruc/Desktop/Projects/Smart_Contract_Development/initial_contract/contracts/Roles.sol",
  "compiler": {
    "name": "solc",
    "version": "0.5.12+commit.7709ece9.Emscripten.clang"
  },
  "schemaVersion": "3.0.19",
  "updatedAt": "2020-01-21T13:36:06.774Z",
  "devdoc": {
    "methods": {}
  },
  "userdoc": {
    "methods": {}
  }
}